:020000040800F2
:1000000000C0002091220008251A0008271A0008C5
:10001000291A00082B1A00082D1A000800000000F9
:10002000000000000000000000000000B1490008CE
:100030002F1A000800000000514A0008954A0008E5
:10004000D9220008D9220008D9220008D9220008A4
:10005000D9220008D9220008D9220008D922000894
:10006000D9220008D9220008D9220008D922000884
:10007000D9220008D9220008D9220008D922000874
:10008000D9220008D9220008D9220008D922000864
:10009000D9220008D9220008D9220008D922000854
:1000A000D9220008D9220008D9220008D922000844
:1000B000D9220008D9220008D9220008D922000834
:1000C000D9220008D9220008D9220008D922000824
:1000D000D9220008D9220008D9220008D922000814
:1000E000D9220008D9220008D9220008D922000804
:1000F000D9220008D9220008D9220008D9220008F4
:10010000D9220008D9220008D9220008D9220008E3
:10011000D9220008D9220008311A0008411A000823
:10012000D9220008D9220008D9220008D9220008C3
:1001300000000000000000000000000000000000BF
:1001400000000000000000000000000000000000AF
:10015000000000000000000000000000000000009F
:10016000000000000000000000000000000000008F
:10017000000000000000000000000000000000007F
:10018000000000000000000000000000000000006F
:10019000000000000000000000000000000000005F
:1001A000000000000000000000000000000000004F
:1001B000000000000000000000000000000000003F
:1001C000000000000000000000000000000000002F
:1001D000000000000000000000000000000000001F
:0401E0005FF8E0F1F3
:1001F00010B5054C237833B9044B13B10448AFF361
:1002000000800123237010BDD806002000000000EC
:1002100008AE000808B5034B1BB103490348AFF310
:10022000008008BD00000000DC06002008AE0008C9
:1002300081F0004102E000BF83F0004330B54FEA97
:1002400041044FEA430594EA050F08BF90EA020F04
:100250001FBF54EA000C55EA020C7FEA645C7FEA97
:10026000655C00F0E2804FEA5454D4EB5555B8BFBA
:100270006D420CDD2C4480EA020281EA030382EA2B
:10028000000083EA010180EA020281EA0303362DBD
:1002900088BF30BD11F0004F4FEA01314FF4801C90
:1002A0004CEA113102D0404261EB410113F0004FA2
:1002B0004FEA03334CEA133302D0524263EB430359
:1002C00094EA050F00F0A780A4F10104D5F1200EF7
:1002D0000DDB02FA0EFC22FA05F2801841F1000152
:1002E00003FA0EF2801843FA05F359410EE0A5F126
:1002F00020050EF1200E012A03FA0EFC28BF4CF057
:10030000020C43FA05F3C01851EBE37101F000450C
:1003100007D54FF0000EDCF1000C7EEB00006EEB19
:100320000101B1F5801F1BD3B1F5001F0CD34908A3
:100330005FEA30004FEA3C0C04F101044FEA4452FA
:1003400012F5800F80F09A80BCF1004F08BF5FEA81
:10035000500C50F1000041EB045141EA050130BD61
:100360005FEA4C0C404141EB0101013C28BFB1F573
:10037000801FE9D291F0000F04BF01460020B1FABE
:1003800081F308BF2033A3F10B03B3F120020CDA91
:100390000C3208DD02F1140CC2F10C0201FA0CF06F
:1003A00021FA02F10CE002F11402D8BFC2F1200CD4
:1003B00001FA02F120FA0CFCDCBF41EA0C0190408A
:1003C000E41AA2BF01EB0451294330BD6FEA0404D3
:1003D0001F3C1CDA0C340EDC04F11404C4F12002BE
:1003E00020FA04F001FA02F340EA030021FA04F3D0
:1003F00045EA030130BDC4F10C04C4F1200220FA27
:1004000002F001FA04F340EA0300294630BD21FA64
:1004100004F0294630BD94F0000F83F4801306BF2A
:1004200081F480110134013D4EE77FEA645C18BF1E
:100430007FEA655C29D094EA050F08BF90EA020FB5
:1004400005D054EA000C04BF1946104630BD91EAAD
:10045000030F1EBF0021002030BD5FEA545C05D1B0
:100460004000494128BF41F0004130BD14F58004EF
:100470003CBF01F5801130BD01F0004545F0FE4163
:1004800041F470014FF0000030BD7FEA645C1ABF98
:10049000194610467FEA655C1CBF0B46024650EACF
:1004A000013406BF52EA033591EA030F41F40021FB
:1004B00030BD00BF90F0000F04BF0021704730B581
:1004C0004FF4806404F132044FF000054FF0000156
:1004D00050E700BF90F0000F04BF0021704730B517
:1004E0004FF4806404F1320410F0004548BF4042EC
:1004F0004FF000013EE700BF42004FEAE2014FEA41
:1005000031014FEA02701FBF12F07F4393F07F4F1B
:1005100081F06051704732F07F4208BF704793F01E
:100520007F4F04BF41F40021704730B54FF4607431
:1005300001F0004521F000411CE700BF50EA010234
:1005400008BF704730B54FF000050AE050EA0102DD
:1005500008BF704730B511F0004502D5404261EB4D
:1005600041014FF4806404F132045FEA915C3FF48E
:10057000D8AE4FF003025FEADC0C18BF03325FEA2B
:10058000DC0C18BF033202EBDC02C2F1200300FADC
:1005900003FC20FA02F001FA03FE40EA0E0021FA01
:1005A00002F11444BDE600BF70B54FF0FF0C4CF4EF
:1005B000E06C1CEA11541DBF1CEA135594EA0C0FA1
:1005C00095EA0C0F00F0DEF82C4481EA030621EADC
:1005D0004C5123EA4C5350EA013518BF52EA033517
:1005E00041F4801143F4801338D0A0FB02CE4FF0C9
:1005F0000005E1FB02E506F00042E0FB03E54FF0F9
:100600000006E1FB03569CF0000F18BF4EF0010EF0
:10061000A4F1FF04B6F5007F64F5407404D25FEAEC
:100620004E0E6D4146EB060642EAC62141EA55519F
:100630004FEAC52040EA5E504FEACE2EB4F1FD0CE1
:1006400088BFBCF5E06F1ED8BEF1004F08BF5FEA5F
:10065000500E50F1000041EB045170BD06F0004611
:1006600046EA010140EA020081EA0301B4EB5C04BE
:10067000C2BFD4EB0C0541EA045170BD41F48011B6
:100680004FF0000E013C00F3AB8014F1360FDEBFDB
:10069000002001F0004170BDC4F10004203C35DAB7
:1006A0000C341BDC04F11404C4F1200500FA05F33A
:1006B00020FA04F001FA05F240EA020001F00042DB
:1006C00021F0004110EBD37021FA04F642EB060151
:1006D0005EEA430E08BF20EAD37070BDC4F10C047B
:1006E000C4F1200500FA04F320FA05F001FA04F23F
:1006F00040EA020001F0004110EBD37041F100012B
:100700005EEA430E08BF20EAD37070BDC4F1200535
:1007100000FA05F24EEA020E20FA04F301FA05F29D
:1007200043EA020321FA04F001F0004121FA04F245
:1007300020EA020000EBD3705EEA430E08BF20EA15
:10074000D37070BD94F0000F0FD101F0004640004F
:1007500041EB010111F4801F08BF013CF7D041EAD1
:10076000060195F0000F18BF704703F000465200D5
:1007700043EB030313F4801F08BF013DF7D043EAA6
:100780000603704794EA0C0F0CEA135518BF95EA5C
:100790000C0F0CD050EA410618BF52EA4306D1D1E3
:1007A00081EA030101F000414FF0000070BD50EA02
:1007B000410606BF1046194652EA430619D094EA8C
:1007C0000C0F02D150EA013613D195EA0C0F05D176
:1007D00052EA03361CBF104619460AD181EA0301CA
:1007E00001F0004141F0FE4141F470014FF0000082
:1007F00070BD41F0FE4141F4780170BD70B54FF01D
:10080000FF0C4CF4E06C1CEA11541DBF1CEA13559C
:1008100094EA0C0F95EA0C0F00F0A7F8A4EB05047E
:1008200081EA030E52EA03354FEA013100F0888075
:100830004FEA03334FF0805545EA131343EA12633E
:100840004FEA022245EA111545EA10654FEA0026F3
:100850000EF000419D4208BF964244F1FD0404F5AC
:10086000407402D25B084FEA3202B61A65EB030508
:100870005B084FEA32024FF480104FF4002CB6EBC5
:10088000020E75EB030E22BFB61A754640EA0C0045
:100890005B084FEA3202B6EB020E75EB030E22BF85
:1008A000B61A754640EA5C005B084FEA3202B6EBC6
:1008B000020E75EB030E22BFB61A754640EA9C0085
:1008C0005B084FEA3202B6EB020E75EB030E22BF55
:1008D000B61A754640EADC0055EA060E18D04FEA13
:1008E000051545EA16754FEA06164FEAC30343EAB3
:1008F00052734FEAC2025FEA1C1CC0D111F4801F80
:100900000BD141EA00014FF000004FF0004CB6E778
:1009100011F4801F04BF01430020B4F1FD0C88BF17
:10092000BCF5E06F3FF6AFAEB5EB030C04BFB6EB22
:10093000020C5FEA500C50F1000041EB045170BD15
:100940000EF0004E4EEA113114EB5C04C2BFD4EB42
:100950000C0541EA045170BD41F480114FF0000EC6
:10096000013C90E645EA060E8DE60CEA135594EA42
:100970000C0F08BF95EA0C0F3FF43BAF94EA0C0F45
:100980000AD150EA01347FF434AF95EA0C0F7FF4BA
:1009900025AF104619462CE795EA0C0F06D152EA0E
:1009A00003353FF4FDAE1046194622E750EA4106F2
:1009B00018BF52EA43067FF4C5AE50EA41047FF403
:1009C0000DAF52EA43057FF4EBAE12E74A0011D2B5
:1009D00012F5001211D20DD56FF47873B3EB625299
:1009E0000ED44FEAC12343F0004343EA505323FAA5
:1009F00002F070474FF00000704750EA013002D11A
:100A00004FF0FF3070474FF00000704753B94AB9BC
:100A1000002908BF00281CBF4FF0FF314FF0FF3006
:100A200000F068B9ADF1080C6DE904CE00F006F8ED
:100A3000DDF804E0DDE9022304B070472DE9F0475A
:100A4000089D0C46002B4ED194468C458646B2FA42
:100A500082F262D94AB1C2F12003914020FA03F335
:100A60000CFA02FC194300FA02FE4FEA1C47B1FBE4
:100A7000F7F407FB14111FFA8CF64FEA1E4343EA02
:100A8000014304FB06F199420AD91CEB030304F16C
:100A9000FF3080F01081994240F20D81023C6344A6
:100AA000591AB1FBF7F007FB101100FB06F61FFA0D
:100AB0008EF343EA01439E420AD91CEB030300F183
:100AC000FF3180F0FA809E4240F2F78063440238A2
:100AD00000219B1B40EA04401DB1D3400022C5E920
:100AE0000032BDE8F0878B4205D90DB1C5E90001A0
:100AF00000210846F5E7B3FA83F1002946D1A34265
:100B000002D39042C0F0EE80861A64EB030301200A
:100B1000002DE6D0C5E90063E3E7002A40F08F80AE
:100B2000A1EB0C0401214FEA1C481FFA8CF7B4FB1F
:100B3000F8F608FB164407FB06F04FEA1E4343EAAB
:100B40000443984208D91CEB030306F1FF3402D298
:100B5000984200F2CB8026461C1AB4FBF8F008FB42
:100B6000104400FB07F71FFA8EF343EA04439F4249
:100B700008D91CEB030300F1FF3402D29F4200F2BC
:100B8000AE802046DB1B40EA0640A5E7C1F1200706
:100B90008B4022FA07FC4CEA030C24FA07F64FEAD2
:100BA0001C49B6FBF9F81FFA8CFE09FB186620FAFF
:100BB00007F38C4000FA01FA08FB0EF01C43230CEB
:100BC00043EA0643984202FA01F20AD91CEB0303F6
:100BD00008F1FF3680F0818098427ED9A8F10208A2
:100BE00063441E1AB6FBF9F309FB136603FB0EFE02
:100BF000A4B244EA0644A64508D91CEB040403F158
:100C0000FF3066D2A64564D9023B644443EA0840FB
:100C1000A0FB0283A4EB0E049C42C6461E4650D3A2
:100C20004DD055B1BAEB0E0364EB060404FA07F796
:100C3000CB401F43CC40C5E90074002151E70CFABA
:100C400002FCC2F12003D9404FEA1C4820FA03F30A
:100C500000FA02FEB1FBF8F008FB101194401C43AF
:100C60001FFA8CF7230C43EA014300FB07F199427A
:100C700008D91CEB030300F1FF362CD299422AD984
:100C8000023863445B1AB3FBF8F108FB1133A4B2DA
:100C900044EA034401FB07F3A34208D91CEB040414
:100CA00001F1FF3613D2A34211D902396444E41A88
:100CB00041EA00413BE70446F2E6084608E7C24540
:100CC000AFD2B8EB020E63EB0C060138A9E7314650
:100CD000EDE703469AE73046D4E7B04681E7634440
:100CE00002384FE706462346084611E7023E6344B2
:100CF00032E700BF704700BF034613F8012B002AFC
:100D0000FBD1181A013870474FF0FF3C06E000BFD6
:100D10004FF0010C02E000BF4FF0010C4DF804CD84
:100D20004FEA410C7FEA6C5C4FEA430C18BF7FEA44
:100D30006C5C1BD001B050EA410C0CBF52EA430C72
:100D400091EA030F02BF90EA020F0020704710F1F2
:100D5000000F91EA030F58BF994208BF90422CBF81
:100D6000D8176FEAE37040F0010070474FEA410C7A
:100D70007FEA6C5C02D150EA013C07D14FEA430C98
:100D80007FEA6C5CD6D152EA033CD3D05DF8040B09
:100D9000704700BF8446104662468C46194663463B
:100DA00000E000BF01B5FFF7B7FF002848BF10F112
:100DB000000F01BD4DF808EDFFF7F4FF0CBF012057
:100DC00000205DF808FB00BF4DF808EDFFF7EAFFD3
:100DD00034BF012000205DF808FB00BF4DF808ED8E
:100DE000FFF7E0FF94BF012000205DF808FB00BF83
:100DF0004DF808EDFFF7CEFF94BF012000205DF80D
:100E000008FB00BF4DF808EDFFF7C4FF34BF012019
:100E100000205DF808FB00BF4FEA410C7FEA6C5CE4
:100E200002D150EA013C0AD14FEA430C7FEA6C5CE4
:100E300002D152EA033C02D14FF0000070474FF05C
:100E4000010070474FEA410212F5001215D211D588
:100E50006FF47873B3EB625212D94FEAC12343F0B7
:100E6000004343EA505311F0004F23FA02F018BF39
:100E7000404270474FF00000704750EA013005D102
:100E800011F0004008BF6FF0004070474FF00000C5
:100E9000704700BF10B500F021FB064C204601F062
:100EA0001FFD204601F0E8FB4FF0FF31204601F026
:100EB00039FA10BD3407002008B5024801F0F4FAF1
:100EC00080B208BD3407002008B5FFF7F5FFFFF733
:100ED00001FB0BA3D3E90023FFF790FC0AA3D3E99E
:100EE0000023FFF761FB0AA3D3E90023FFF786FC89
:100EF00009A3D3E90023FFF757FB08BDAFF3008038
:100F00000000000000FEAF406666666666660A4046
:100F1000355EBA490C020940333333333333294049
:100F20002DE9F04F83B005468A46904699469DF8D4
:100F3000306010461946FFF749FDC0B21A4FA7FBB3
:100F400000235B094FF0640B0BFB1300C4B20022BB
:100F5000164B40464946FFF727FBFFF737FD80B2A7
:100F6000A7FB00377F090BFB1700C7B200960223CF
:100F700022465146284600F031FAA81933460C4A59
:100F80005146C0B200F072FA06F0FE0303EB5603BE
:100F9000E818009602233A465146C0B200F01EFA05
:100FA00003B0BDE8F08F00BF1F85EB510000594032
:100FB00020AE000800B583B0FFF786FF02460B465F
:100FC0001021009102215820FFF7AAFF4FF4FA7078
:100FD00004F014FEF0E770B506460D46144600F026
:100FE00009F9304600F01FF900F057F9284600F0E3
:100FF0001AF900F052F9204600F015F900F04DF909
:1010000000F006F970BD08B503281BD8DFE800F032
:1010100002080E1400227F21D020FFF7DCFF08BD5C
:1010200010227F21D020FFF7D6FFF8E720227F2172
:10103000D020FFF7D0FFF2E730227F21D020FFF74A
:10104000CAFFECE700227F21D020FFF7C4FFE6E7CC
:1010500038B504460D4600F0CDF8204600F0E3F820
:1010600000F01BF9284600F0DEF800F016F900F059
:10107000C1F844F0010000F0D6F800F00EF900F0DD
:10108000E6F80446012000F0FEF800F0C1F8204622
:1010900038BD08B50020FFF7B6FF80220621D0201A
:1010A000FFF799FF642004F0A9FD01220621D0205A
:1010B000FFF791FF00220721D020FFF78CFF0220CD
:1010C000FFF7A1FF04220021D020FFF784FF1F2299
:1010D0000121D020FFF77FFF00220221D020FFF75F
:1010E0007AFF00221021D020FFF775FF0A2211217C
:1010F000D020FFF770FF1D221421D020FFF76BFFD7
:1011000000221521D020FFF766FF08BD38B5044640
:101110000020FFF778FF2D21D020FFF799FF05462B
:101120002E21D020FFF794FF40EA052020802F21B8
:10113000D020FFF78DFF05463021D020FFF788FF34
:1011400040EA052060803121D020FFF781FF05466D
:101150003221D020FFF77CFF40EA0520A080332118
:10116000D020FFF775FF05463421D020FFF770FF30
:1011700040EA0520E0803521D020FFF769FF0546D1
:101180003621D020FFF764FF40EA05202081372177
:10119000D020FFF75DFF05463821D020FFF758FF2C
:1011A00040EA0520608138BD08B5024608210348A1
:1011B00001F09DFD012004F021FD08BD001001405B
:1011C00008B502460421034801F091FD012004F016
:1011D00015FD08BD0010014010B50821044801F0BC
:1011E0007FFD0446012004F009FD204610BD00BF2C
:1011F0000010014008B50120FFF7D6FF0120FFF7DE
:10120000DFFF0020FFF7D0FF0020FFF7D9FF08BD68
:1012100008B50020FFF7C8FF0120FFF7D1FF01202C
:10122000FFF7C2FF08BD38B5054600240CE080205A
:1012300020412840FFF7B8FF0120FFF7C1FF002041
:10124000FFF7BEFF0134E4B2072CF0D938BD38B542
:101250000120FFF7A9FF00252C4604E00020FFF73E
:10126000AFFF0134E4B2072C0BD80120FFF7A8FF31
:10127000FFF7B2FF0128F1D1802323411D43EDB2D6
:10128000ECE7284638BD08B5FFF78EFF0120FFF7D1
:1012900097FF0020FFF794FF08BD10B50120FFF76E
:1012A00083FF0120FFF78CFFFFF796FF0446002025
:1012B000FFF786FF204610BD0246012002E002FB38
:1012C00000F019464B1EDBB20029F8D17047000030
:1012D00000B587B08DF817004FF480730293012397
:1012E00001930DF11702009200227821024801F0CB
:1012F00087FF07B05DF804FB6807002000B587B0E2
:101300008DF817004FF480730293012301930DF1C0
:101310001702009240227821024801F071FF07B0C5
:101320005DF804FB6807002010B50446A1F15000E9
:10133000C0B2FFF7CDFF200940F01000FFF7C8FF53
:1013400004F00F00FFF7C4FF10BD0000F8B507461A
:101350000E46203AD5B210F0800F07D1102B09D0DD
:1013600031463846FFF7E0FF002430E00136F6B2A0
:101370000027F3E731463846FFF7D6FF002407E0A1
:1013800004EB0513134AD05CFFF7B8FF0134E4B255
:10139000072CF5D9711CC9B23846FFF7C5FF0024E8
:1013A00008E004EB051308330A4AD05CFFF7A6FFF8
:1013B0000134E4B2072CF4D90BE005EB4502064BEF
:1013C00003EB4203185DFFF799FF0134E4B2052CEB
:1013D000F3D9F8BD24AE000814B400082DE9F04795
:1013E0008246894690461D469DF8206000273C466F
:1013F00019E0700804FB00F0C0B2504433462022CC
:101400004946C0B2FFF7A2FF0BE0700804FB00F0F2
:10141000C0B2303250443346D2B24946C0B2FFF770
:1014200095FF0134E4B2AC421CD2291BC9B2013988
:10143000C9B20A20FFF740FFB8FBF0F00A4BA3FB4C
:10144000003C4FEADC0C0CEB8C0CA0EB4C0C5FFA74
:101450008CF2002FD9D16B1E9C42D6DA002AC8D05C
:101460000127D2E7BDE8F087CDCCCCCC2DE9F04107
:1014700004460E4617469846002501E00135EDB2B8
:101480007A5D62B1434631462046FFF75FFF08347C
:10149000E4B2782CF2D90236F6B20024EEE7BDE8C9
:1014A000F08138B5002509E00020FFF727FF01345F
:1014B000E4B214F0800FF7D00135EDB2032D0CD853
:1014C000A5F15000C0B2FFF703FF0020FFF700FFB7
:1014D0001020FFF7FDFE0024EBE738BD10B5002417
:1014E00005E0074B185DFFF7F3FE0134E4B2152C5D
:1014F000F7D9FFF7D6FF00210846FFF715FF10BD0B
:101500000000002030B58BB004460AA800E90E00A8
:10151000BDF91E30BDF92020BDF92210BDF924000F
:10152000BDF9265004950390029101920093BDF9F4
:101530001C30084A4021084804F0D6FF431E3E2BC9
:1015400001D90BB030BD642382B20349204603F0B9
:101550006DF8F6E73CB60008F406002000B585B04B
:1015600000230193029303931148124A026083609F
:101570000122027303754FF46021C161436002616F
:1015800001F01AF968B90E2301930123029307238E
:10159000039301A9064800F08BFF28B905B05DF858
:1015A00004FB00F05DF9EEE700F05AF9F6E700BF42
:1015B000340700200024014000B587B000230293C7
:1015C0000393049305930268114B9A4202D007B02B
:1015D0005DF804FB03F56C439A6942F400729A616A
:1015E0009A6902F400720092009A9A6942F010021D
:1015F0009A619B6903F010030193019B10230293EE
:101600000323039302A9034801F04EFADFE700BF6A
:10161000002401400010014008B5FFF7CBFC08BDD5
:1016200000B585B0FFF735FD01AC2046FFF76EFD34
:1016300094E80E000348FFF765FF0A2004F0DEFA85
:10164000F2E700BF000A002008B5FFF747FFFFF7E9
:1016500021FC08BD00B583B0FFF7F6FF094A002161
:10166000094803F08BF8094B1860002301931822F6
:1016700000924FF400720649064804F01FF903B0C7
:101680005DF804FB6CB6000819160008640700201A
:101690005CB60008211600082DE9F04389B000244B
:1016A00004940594069407943B4B9A6942F0100207
:1016B0009A619A6902F010020092009A9A6942F0C7
:1016C00020029A619A6902F020020192019A9A69B5
:1016D00042F004029A619A6902F004020292029AAC
:1016E0009A6942F008029A619B6903F00803039328
:1016F000039BDFF8A880224642F22201404601F017
:10170000F6FA01220C21404601F0F1FA244E0122A2
:101710004FF42041304601F0EAFA22464FF480416E
:10172000304601F0E4FA42F22203049301250595C4
:1017300006940227079704A9404601F0B5F90C2347
:1017400004934FF01109CDF814900695079704A95A
:10175000404601F0A9F94FF420430493CDF81490CA
:101760000694079704A9304601F09EF94FF4804390
:10177000049305950694079704A9304601F094F95F
:10178000042304930594069504A9064801F08CF9F6
:1017900009B0BDE8F08300BF001002400010014016
:1017A000000C01400014014008B50B480B4B0360CE
:1017B0000B4B436000238360C3604FF4804202619F
:1017C00043618361C361036201F03CFC00B908BD61
:1017D00000F046F8FBE700BF680700200058004013
:1017E000A086010010B586B00023029303930493F2
:1017F00005930268114B9A4201D006B010BD104CFF
:10180000A36943F00803A361A36903F008030093ED
:10181000009B4FF440630293122303930323059329
:1018200002A9084801F040F9E36943F48003E36149
:10183000E36903F480030193019BDEE70058004055
:1018400000100240000C014008B50268034B9A42A8
:1018500000D008BD00F054FDFBE700BF00100040C1
:1018600072B6FEE700B597B0282200210CA804F05C
:10187000B2FE00230793089309930A930B930193F5
:101880000293039304930593069301220C924FF461
:1018900080330D9310920222139214934FF4E013AD
:1018A00015930CA801F074FDC8B90F23079302210A
:1018B0000891002309934FF480620A920B9307A8C2
:1018C00001F098FF68B9022301934FF4004303939A
:1018D00001A802F089F830B917B05DF804FBFFF7F2
:1018E000BFFFFFF7BDFFFFF7BBFF08B500F0F6FC39
:1018F000FFF7B8FFFFF7D0FEFFF756FF00F052FBEF
:1019000000F0E0FB00F038F900F06CFC00F000F9AA
:1019100000F068F900F09CF9FFF720FE00F0CEF926
:1019200002F0E4FEFFF796FE02F002FFFEE7000081
:1019300000B583B0114B9A6942F001029A619A692D
:1019400002F001020092009ADA6942F08052DA61F4
:10195000DB6903F080530193019B00220F216FF09C
:10196000010001F083F8064A536823F0E06343F076
:101970000073536003B05DF804FB00BF0010024029
:101980000000014030B589B00446214BDA6942F0CD
:101990001002DA61DB6903F010030193019B02A9D5
:1019A00003A802F003F8069BCBB901F0DFFF034662
:1019B000184AA2FB03239B0C013B1748174A0260FD
:1019C00040F2E732C26043600023036183608361B9
:1019D00002F020FB054630B1284609B030BD01F0C9
:1019E000C5FF4300E4E70C4802F0CAF905460028A9
:1019F000F2D1362001F04AF80F2C01D90125EBE78E
:101A000000222146362001F031F8054B1C60E3E747
:101A10000010024083DE1B43BC0700200010004082
:101A200020000020FEE7FEE7FEE7FEE7FEE7704746
:101A300008B5024802F0E5F908BD00BFBC07002068
:101A400008B5024802F0DDF908BD00BF50080020CB
:101A50000120704708B504F039FE162303604FF0EB
:101A6000FF3008BD08B54FF0FF31FFF7F3FFFEE789
:101A700070B50C461646002506E0AFF300802146FF
:101A800001F8010B01350C46B542F6DB304670BD5E
:101A900070B50C461646002504E014F8010BAFF3B0
:101AA00000800135B542F8DB304670BD4FF0FF30A5
:101AB00070474FF400534B6000207047012070477F
:101AC0000020704710B503460C4A0D490D480068C8
:101AD00040B10C4800680344521A934206D8094AA0
:101AE000136010BD0748084C0460F2E704F0EEFDF7
:101AF0000C2303604FF0FF30F3E700BF00C000206D
:101B0000000400000408002030B9002070470000E5
:101B100000B58DB02422002103A804F05CFD002351
:101B20000193029313484FF0804202604360836048
:101B30004FF6FF72C26003618361032303930122A6
:101B400005920F23079309920B9303A902F0BAFAA7
:101B500050B900230193029301A9064802F040FC0A
:101B600028B90DB05DF804FBFFF77AFEF1E7FFF747
:101B700077FEF6E77009002000B58DB02422002121
:101B800003A804F028FD0023019302931348144A8C
:101B90000260436083604FF6FF72C260036180237E
:101BA000836103230393012205920F230793099274
:101BB0000B9303A902F086FA50B900230193029314
:101BC00001A9064802F00CFC28B90DB05DF804FB31
:101BD000FFF746FEF1E7FFF743FEF6E7280900208E
:101BE0000004004000B58DB02422002103A804F0B9
:101BF000F2FC0023019302931348144A02604360ED
:101C000083604FF6FF72C260036183610323039315
:101C1000012205920F23079309920B9303A902F067
:101C200051FA50B900230193029301A9064802F02A
:101C3000D7FB28B90DB05DF804FBFFF711FEF1E703
:101C4000FFF70EFEF6E700BFE008002000080040A6
:101C500000B58DB02422002103A804F0BCFC0023B1
:101C6000019302931348144A0260436083604FF665
:101C7000FF72C26003618361032303930122059213
:101C80000F23079309920B9303A902F01BFA50B993
:101C900000230193029301A9064802F0A1FB28B991
:101CA0000DB05DF804FBFFF7DBFDF1E7FFF7D8FDB2
:101CB000F6E700BF98080020000C004000B583B094
:101CC0000023009301930F480F4A026041F61F4220
:101CD000426083606323C3608023836102F09AF9CA
:101CE00050B90023009301936946064802F078FB3F
:101CF00028B903B05DF804FBFFF7B2FDF1E7FFF789
:101D0000AFFDF6E7500800200014004000B585B094
:101D100003681A4A934208D0194A934210D0194ACC
:101D2000934220D005B05DF804FB174B9A6942F44A
:101D300000629A619B6903F400630193019BF1E7E0
:101D4000114BDA6942F02002DA61DB6903F020030B
:101D50000293029B00220521372000F087FE3720E6
:101D600000F094FEDEE7084B9A6942F400529A6153
:101D70009B6903F400530393039BD3E7002C0140BA
:101D800000140040003401400010024000B58FB044
:101D900000230A930B930C930D930368B3F1804FC8
:101DA0000BD0484A93423FD0474A934256D0474AC5
:101DB00093426DD00FB05DF804FB03F50433DA698C
:101DC00042F00102DA61DA6902F001020192019A3D
:101DD0009A6942F004029A619A6902F0040202923E
:101DE000029A9A6942F008029A619B6903F008031B
:101DF0000393039B4FF400430A930AA9344800F06D
:101E000053FE08230A9300230B930C930AA931482D
:101E100000F04AFE304A536823F4407343F0E06315
:101E200043F480735360C5E72C4BDA6942F0020239
:101E3000DA61DA6902F002020492049A9A6942F0C5
:101E400004029A619B6903F004030593059BC02378
:101E50000A930AA91E4800F027FEABE71F4BDA6978
:101E600042F00402DA61DA6902F004020692069A8C
:101E70009A6942F008029A619B6903F0080307938C
:101E8000079BC0230A930AA9124800F00DFE91E7B0
:101E9000124BDA6942F00802DA61DA6902F00802EC
:101EA0000892089A9A6942F004029A619B6903F0C9
:101EB00004030993099B03230A930AA9044800F029
:101EC000F3FD77E70004004000080040000C0040EC
:101ED00000080140000C01400000014000100240D9
:101EE00010B588B000230493059306930793036805
:101EF000254A934204D0254A934230D008B010BD01
:101F0000234B9A6942F008029A619A6902F008022A
:101F10000192019A9A6942F004029A619B6903F066
:101F200004030293029B0323049302240594079461
:101F300004A9184800F0B8FD4FF410630493059409
:101F4000079404A9144800F0AFFD144A536823F025
:101F5000C00343F0E06343F040035360CEE70C4B13
:101F60009A6942F010029A619B6903F0100303938F
:101F7000039B4FF47073049302230593079304A902
:101F8000074800F091FDB9E7002C01400034014002
:101F900000100240000C0140000801400000014018
:101FA0000010014010B596B00024129413941494BC
:101FB00015941094119409940A940B940C940D9414
:101FC0000E940F942022214601A804F004FB3B4804
:101FD0003B4B03604460846040F60F63C360046160
:101FE00044618023836102F015F800284BD14FF43F
:101FF0008053129312A9314802F072F9002845D19A
:102000002E4802F033F8002843D100231093119397
:1020100010A92A4802F0E4F900283DD16023099371
:1020200000220A920B920C920D920E920F9209A925
:10203000224802F0DBF8002831D1042209A91F4808
:1020400002F0D4F870BB082209A91C4802F0CEF8AF
:1020500058BB0C2209A9194802F0C8F840BB00235C
:10206000019302930393049305934FF40052069255
:10207000089301A9114802F0F1F9E0B90F48FFF700
:102080002FFF16B010BDFFF7EBFBB0E7FFF7E8FB43
:10209000B6E7FFF7E5FBB8E7FFF7E2FBBEE7FFF7C0
:1020A000DFFBCAE7FFF7DCFBCDE7FFF7D9FBD0E7A3
:1020B000FFF7D6FBD3E7FFF7D3FBDFE7B809002034
:1020C000002C014010B596B000241294139414947F
:1020D00015941094119409940A940B940C940D94F3
:1020E0000E940F942022214601A804F074FA3B4874
:1020F0003B4B03604460846040F60F63C36004613F
:1021000044618023836101F085FF00284BD14FF4A7
:102110008053129312A9314802F0E2F8002845D109
:102120002E4801F0A3FF002843D100231093119300
:1021300010A92A4802F054F900283DD160230993E0
:1021400000220A920B920C920D920E920F9209A904
:10215000224802F04BF8002831D1042209A91F4877
:1021600002F044F870BB082209A91C4802F03EF8AE
:1021700058BB0C2209A9194802F038F840BB0023CB
:10218000019302930393049305934FF40052069234
:10219000089301A9114802F061F9E0B90F48FFF76F
:1021A0009FFE16B010BDFFF75BFBB0E7FFF758FBD3
:1021B000B6E7FFF755FBB8E7FFF752FBBEE7FFF7BF
:1021C0004FFBCAE7FFF74CFBCDE7FFF749FBD0E732
:1021D000FFF746FBD3E7FFF743FBDFE708080020E4
:1021E0000034014008B50A480A4B03604FF4E1335C
:1021F000436000238360C36003610C2242618361FA
:10220000C36102F0E3F900B908BDFFF729FBFBE762
:10221000000A00200038014010B586B00023029368
:102220000393049305930268174B9A4201D006B0BA
:1022300010BD03F558439A6942F480429A619A6945
:1022400002F480420092009A9A6942F004029A6174
:102250009B6903F004030193019B4FF40073029305
:102260000223039303230593084C02A9204600F0A0
:102270001BFC4FF48063029300230393049302A991
:10228000204600F011FCD2E7003801400008014070
:10229000FFF73CFC0B480C490C4A002302E0D458E1
:1022A000C4500433C4188C42F9D3094A094C0023A2
:1022B00001E013600432A242FBD304F00DFAFFF7F1
:1022C00014FB704700000020D806002084BA0008E4
:1022D000D80600202CB90020FEE7000008B5074A08
:1022E000136843F010031360032000F0ADFB0F20D0
:1022F000FFF748FBFFF71CFB002008BD0020024051
:10230000034A1168034B1B780B441360704700BFEE
:10231000480A00201C000020014B1868704700BFCD
:10232000480A0020F0B583B005460C46002301930F
:10233000FFF7F2FF2B689A6812F4807F23D10746DB
:102340005A6812F4807F03D1DB6A13F4700F29D02E
:10235000504B1E68022001F0D3FBB6FBF0F62B6851
:1023600019694D4A114236D1D96802F15C421142D5
:1023700031D11969494A114240D1DA68484B1A42B1
:102380003ED0292341E0AB6A43F02003AB62002337
:1023900085F82430012003B0F0BD2B681B6813F0D2
:1023A000020F0FD02B681B6813F0020F4FD1B4F14E
:1023B000FF3FF7D0002CF0D0FFF7AEFFC31BA342C6
:1023C000F0D9EAE7AB6A43F00403AB62002385F877
:1023D00024300320DFE71969304A114204D1D9685B
:1023E00002F16E4211420DD019692E4A0A405AB9C3
:1023F000DA682C4B13405BB1FC2306E0292304E090
:10240000142302E0542300E0FC2303FB06F607E05C
:102410005423FAE7019BB34210D3019B013301938C
:10242000019BB34213D2B4F1FF3FF6D0002CF1D0A0
:10243000FFF772FFC01BA042EFD9EBE7AB6A43F096
:102440000403AB62002385F824300320A3E72B6844
:102450006FF012021A60AB6A43F40073AB622B6830
:102460009B6803F46023B3F5602F01D0002092E74E
:10247000287B60B9AB6A23F48073AB62AB6A13F458
:10248000805F88D1AB6A43F00103AB6283E7002031
:1024900081E700BF180000202449922492244912A9
:1024A00092244900499224000368D86C70470000C8
:1024B00030B482B00022019290F82420012A00F06A
:1024C0008F800346012280F824204A68062A2DD8EE
:1024D0000468606B02EB8202053A4FF01F0C0CFAA5
:1024E00002FC20EA0C000D6805FA02F20243626366
:1024F0000A68092A38D91C68E06802EB42021E3AD1
:102500004FF0070C0CFA02FC20EA0C008D6805FA6B
:1025100002F20243E2600A68103A012A34D900202C
:10252000002283F8242002B030BC70470C2A0DD85A
:102530000568286B02EB8202233A1F24944020EAAC
:1025400004000C68944020432863D1E70568E86ADA
:1025500002EB8202413A1F24944020EA04000C68F6
:1025600094402043E862C3E71C68206902EB420202
:102570004FF0070C0CFA02FC20EA0C008D6805FAFB
:1025800002F202432261C6E71A681648824205D069
:102590009A6A42F020029A620120C1E7906810F422
:1025A000000F1BD1906840F4000090600A68102A68
:1025B00001D00020B4E70C4A12680C49A1FB0212BA
:1025C000920C02EB82025200019202E0019A013A5F
:1025D0000192019A002AF9D10020A1E700209FE78B
:1025E0000220A0E7002401401800002083DE1B43E6
:1025F00030B583B00023019303689A6812F0010F8D
:1026000033D104469A6842F001029A60184B1B6865
:10261000184AA2FB03239B0C019302E0019B013BA0
:102620000193019B002BF9D1FFF776FE0546236845
:102630009B6813F0010F16D1FFF76EFE431B022BB0
:10264000F5D923689B6813F0010FF0D1A36A43F01A
:102650001003A362E36A43F00103E362002384F8FA
:102660002430012002E0002000E0002003B030BD53
:102670001800002083DE1B4390F82430012B68D023
:1026800010B50446012380F82430FFF7B1FF00287D
:102690005BD1A36A23F4407323F0010343F48073F6
:1026A000A36223682C4A934227D0A26A22F48012A4
:1026B000A2625A6812F4806F05D0A26A22F44052D6
:1026C00042F48052A262A26A12F4805F2BD0E26AC6
:1026D00022F00602E262002284F824206FF0020257
:1026E0001A6023689A6802F46022B2F5602F1DD048
:1026F0009A6842F480129A602AE0A2F580625268D9
:1027000012F4702FD1D0A26A42F48012A262134A4E
:10271000526812F4806FD6D0A26A22F4405242F47A
:102720008052A262CFE70022E262D4E70A4A9342D3
:1027300004D09A6842F4A0029A6009E0A2F580628F
:10274000526812F4702FD3D1F3E7002384F82430B9
:1027500010BD0220704700BF002801400024014046
:1027600038B503689A6812F0010F01D1002038BD16
:1027700004469A6822F001029A60FFF7CDFD0546F3
:1027800023689B6813F0010F13D0FFF7C5FD431BAF
:10279000022BF5D923689B6813F0010FF0D0A36AD0
:1027A00043F01003A362E36A43F00103E3620120F4
:1027B000DDE70020DBE70000002800F0888070B52E
:1027C0000446836A002B52D02046FFF7C9FFA36A54
:1027D00013F0100375D1002873D1A26A22F4885235
:1027E00022F0020242F00202A262626826683949BF
:1027F0008E4242D0E1690A43217B42EA4102A56848
:10280000B5F5807F02D0012D3ED01D4694F814C04E
:10281000BCF1010F3BD0716821F46941294371601B
:102820002568AE682C4931401143A960A168B1F513
:10283000807F01D0012902D12369013B1B05256856
:10284000E96A21F470010B43EB6223689968234B1A
:102850000B409A422CD0A36A23F0120343F01003DA
:10286000A362E36A43F00103E36201202EE0C36246
:1028700080F82430FEF7A0FEA6E7E169B1F5402F0D
:10288000B9D14FF40021B6E74FF48075BEE731B9F6
:10289000A169013945EA413141F40065BBE7A16A0C
:1028A00041F02001A162E16A41F00101E162B2E779
:1028B0000023E362A36A23F0030343F00103A3624E
:1028C00004E0A36A43F01003A362012070BD01205D
:1028D000704700BF003C0140FDF7E1FFFE0E1FFF07
:1028E00070B582B00023019390F82430012B72D090
:1028F0000446012380F82430FFF732FF2046FFF71B
:1029000077FE054628B1002384F82430284602B01B
:1029100070BDA36A23F4885323F0020343F002033B
:10292000A3622E4B1E68022001F0EAF8B6FBF0F617
:102930007600019602E0019B013B0193019B002B75
:10294000F9D12268936843F008039360FFF7E4FC31
:10295000064623689A6812F0080F14D0FFF7DCFCD3
:10296000801B0A28F5D923689B6813F0080FF0D064
:10297000A36A23F0120343F01003A362002384F838
:1029800024300125C2E79A6842F004029A60FFF7FA
:10299000C3FC064623689B6813F0040F14D0FFF7AE
:1029A000BBFC801B0A28F5D923689B6813F0040F31
:1029B000F0D0A36A23F0120343F01003A3620023B4
:1029C00084F824300125A1E7A36A23F0030343F030
:1029D0000103A36297E7022598E700BF18000020D3
:1029E000002808DB0901C9B200F1604000F5614030
:1029F00080F80013704700F00F000901C9B2014BC5
:102A00001954704714ED00E000B500F00700C0F164
:102A1000070CBCF1040F28BF4FF0040C031D062B5C
:102A20000FD9C31E4FF0FF3E0EFA0CF021EA000151
:102A300099400EFA03FE22EA0E0241EA02005DF816
:102A400004FB0023EEE70000074AD36823F4E063A9
:102A50001B041B0C000200F4E060034343F0BF635F
:102A600043F40033D360704700ED00E010B5044636
:102A7000054BD868C0F30220FFF7C6FF0146204689
:102A8000FFF7AEFF10BD00BF00ED00E0002807DB40
:102A900000F01F02400901239340024A42F820300F
:102AA000704700BF00E100E070B582B00024A4468A
:102AB000ACE0854DAB4210D007D9844DAB420CD071
:102AC00005F58035AB4208D013E0A5F58015AB4283
:102AD00003D005F57025AB4207D18B68002B5FD082
:102AE000012B58D04261082403E0A5F58015AB42C4
:102AF000F3D0BEF1FF0F55D806464FEA8C0233687B
:102B00000F25954023EA050304FA02F213433360CC
:102B10004B6813F0805F77D06D4B9A6942F00102E9
:102B20009A619B6903F001030193019B4FEA9C02A8
:102B3000951C684B53F825600CF00305AD000F237E
:102B4000AB4026EA0306644B984232D003F580631B
:102B5000984200F0978003F58063984200F09480DB
:102B600003F58063984200F0918003F580639842FA
:102B700000F08E8003F58063984218D0062319E098
:102B8000CC68B6E7CC680434B3E7CC680834B0E767
:102B9000CC680C34ADE702610824AAE70024A8E75A
:102BA0000424A6E7061DACF108029200A7E705235E
:102BB00000E00023AB4033430232464D45F822305B
:102BC0004B6813F4801F65D0444A936843EA0E03B0
:102BD00093604B6813F4001F62D0404AD36843EA05
:102BE0000E03D3604B6813F4003F5FD03B4A536839
:102BF00043EA0E0353604B6813F4803F5CD0374ABE
:102C0000136843EA0E0313600CF1010C0B6833FAEE
:102C10000CF257D0012202FA0CF203EA020E32EA59
:102C20000303F1D14B68122B3FF643AF122B3FF653
:102C300060AF01A555F823F0DB2A0008812B0008BE
:102C40008B2B00089D2B0008F32A0008F32A0008AC
:102C5000F32A0008F32A0008F32A0008F32A0008E0
:102C6000F32A0008F32A0008F32A0008F32A0008D0
:102C7000F32A0008F32A0008F32A0008852B00082D
:102C8000912B0008012395E7022393E7032391E7A3
:102C900004238FE7114A936823EA0E03936098E7B1
:102CA0000E4AD36823EA0E03D3609BE70B4A5368AE
:102CB00023EA0E0353609EE7084A136823EA0E03D3
:102CC0001360A1E702B070BD0000221000003110B7
:102CD00000100240000001400008014000040140D3
:102CE0008368194201D001207047002070470AB163
:102CF0000161704709040161704703685A6912F461
:102D0000806F01D1002070476FF480625A61002308
:102D10000363202280F83D2080F83E30026C42F0B0
:102D20000402026480F83C30012070472DE9F04134
:102D300006460C46174698463BE0FFF7EDFA069B21
:102D4000C01A404502D8B8F1000F32D1012D18D079
:102D500033689B6924EA03039BB2B3FA83F35B09EC
:102D60009F4226D100233363202286F83D2086F837
:102D70003E30326C42F02002326486F83C30012052
:102D800027E033685B6924EA03039BB2B3FA83F359
:102D90005B09E5E733685B6924EA030C1FFA8CFCE6
:102DA000BCFA8CFC4FEA5C1C674511D1B8F1FF3FBF
:102DB000C3D1C4F30745012DECD033689B6924EAE5
:102DC000030C1FFA8CFCBCFA8CFC4FEA5C1CEBE792
:102DD0000020BDE8F0812DE9F84305460E469046F7
:102DE000994653E01A6842F400721A602B686FF437
:102DF00080625A6100232B63202285F83D2085F8EC
:102E00003E302A6C42F004022A6485F83C300120EE
:102E10004AE0FFF781FAA0EB0900404502D8B8F17B
:102E2000000F33D1012F17D02B689B6926EA0303CB
:102E30009BB2003B18BF012343B300232B63202226
:102E400085F83D2085F83E302A6C42F020022A6445
:102E500085F83C30012027E02B685B6926EA0303F4
:102E60009BB2003B18BF0123E6E72B689C6926EA6A
:102E70000404A4B2003C18BF0124A4B12B685A6911
:102E800012F4806FAED1B8F1FF3FC2D1C6F307474D
:102E9000012FEAD12B685C6926EA0404A4B2003C45
:102EA00018BF0124E9E70020BDE8F88370B50446A7
:102EB0000D46164623685B6913F0800F21D120462A
:102EC000FFF71BFFF8B9B5F1FF3FF3D0FFF724FA86
:102ED000801BA84201D8002DECD123685B6913F058
:102EE000800FE7D100232363202284F83D2084F85B
:102EF0003E30226C42F02002226484F83C300120F3
:102F000000E0002070BD0120FCE700002DE9F04347
:102F100085B004460D4691461F46DDF830800D9E73
:102F20000368196841F480711960009643460022D5
:102F30004FF00111FFF7FAFE60B9236805F0FE05B6
:102F40001D613346424626492046FFF744FF68B1DB
:102F5000012008E023681B6813F4807F02D04FF43F
:102F600000732364032005B0BDE8F08300230393BE
:102F700023685A6903929B690393039B3246414637
:102F80002046FFF793FF30B9012F0FD123685FFA76
:102F900089F61E61E7E7236C042B01D00120E2E7EC
:102FA0002268136843F400731360F7E723684FEA5D
:102FB00019221A61324641462046FFF777FF20B9B1
:102FC00023685FFA89F61E61CDE7236C042B01D0DC
:102FD0000120C8E72268136843F400731360F7E721
:102FE0000200010070B504460D46164623685B6971
:102FF00013F0040F21D12046FFF77FFEF8B9B5F199
:10300000FF3FF3D0FFF788F9801BA84201D8002DBD
:10301000ECD123685B6913F0040FE7D1002323632D
:10302000202284F83D2084F83E30226C42F02002B9
:10303000226484F83C30012000E0002070BD0120B3
:10304000FCE70000002800F0CC8070B5044690F842
:103050003D30002B77D0242384F83D30226813685C
:1030600023F0010313602268136843F400431360E4
:103070002268136823F40043136000F077FC626851
:103080005A4B9A4264D85A4B98428CBF0023012372
:10309000002B40F0A8805749A1FB00318B0C25681C
:1030A0006A6822F03F0242EA91426A6021680A6A35
:1030B00022F03F0266684D4DAE424FD801331343B4
:1030C0000B622168CA6922F44F4222F0FF02656850
:1030D000464B9D424CD8431E6D00B3FBF5F30133C4
:1030E00040F6FC70034278D0C3F30B031A43CA6165
:1030F00021680B6823F0C003E269206A024313438E
:103100000B6021688B6823F4034323F0FF032269DB
:10311000E068024313438B602168CB6823F0FF0310
:103120006269A06902431343CB602268136843F0CD
:103130000103136000202064202384F83D302063C5
:1031400084F83E0070BD80F83C30FEF74BFB82E710
:10315000294B98428CBF0023012399E74FF49675C1
:1031600005FB03F3254DA5FB03539B090133A6E79C
:10317000A668BEB9431E05EB450CB3FBFCF3013357
:10318000C3F30B03B3FA83F35B0943BBC6B9431E16
:1031900005EB4505B3FBF5F30133C3F30B0343F430
:1031A0000043A3E7431E05EB850C0CEB8C0CB3FB33
:1031B000FCF30133C3F30B03B3FA83F35B09E4E7D6
:1031C000431E05EB850505EB8505B3FBF5F30133E0
:1031D000C3F30B0343F4404388E7042386E701234A
:1031E00084E7012070470120ACE700BFA086010002
:1031F0007F841E0083DE1B43FF083D00D34D621019
:103200002DE9F04383B004460F46904699460C9E44
:10321000FFF782F8054694F83D00C0B2202803D09D
:10322000022003B0BDE8F0830095192301224B4929
:103230002046FFF77BFD002840F0898094F83C3061
:10324000012B00F08680012384F83C3023681A6843
:1032500012F0010F03D11A6842F001021A602268CD
:10326000136823F400631360212384F83D30402366
:1032700084F83E30002323640A9B6362BDF82C303F
:103280006385638D2385364BE362019500964B463B
:10329000424639462046FFF739FE00285BD1238D90
:1032A000002B35D02A4631462046FFF7FFFD20BBD4
:1032B000626A236812781A61626A531C6362218D04
:1032C000013989B22185638D9BB2013B9BB2638535
:1032D0002368586910F0040FE1D00029DFD052783C
:1032E0001A61636A01336362238D013B2385638D19
:1032F0009BB2013B9BB26385D1E7236C042B01D0C9
:1033000001208EE72268136843F400731360F7E727
:103310002A4631462046FFF765FE50B1236C042B48
:1033200001D001207DE72268136843F40073136025
:10333000F7E72268136843F400731360202384F8CE
:103340003D30002384F83E3084F83C3069E70220A9
:1033500067E7022065E7012063E700BF0200100075
:103360000000FFFF82B0084B1B68084AA2FB032342
:103370005B0A00FB03F3019300BF019B5A1E0192FD
:10338000002BF9D102B0704718000020D34D621015
:10339000002800F0F18170B582B00446036813F094
:1033A000010F2CD0994B5B6803F00C03042B1DD04C
:1033B000964B5B6803F00C03082B12D06368B3F5DF
:1033C000803F41D0002B55D103F1804303F50433F6
:1033D0001A6822F480321A601A6822F480221A6075
:1033E00037E08A4B5B6813F4803FE7D0874B1B685C
:1033F00013F4003F03D06368002B00F0BF81236803
:1034000013F0020F75D0814B5B6813F00C0F5FD087
:103410007E4B5B6803F00C03082B54D02369002B10
:1034200000F08A807A4B01221A60FEF775FF05468C
:10343000764B1B6813F0020F75D1FEF76DFF401B32
:103440000228F5D903209EE1704A136843F48033C3
:103450001360636843B3FEF75FFF05466B4B1B6861
:1034600013F4003FCBD1FEF757FF401B6428F5D97A
:10347000032088E1B3F5A02F09D0644B1A6822F429
:1034800080321A601A6822F480221A60E1E703F1A0
:103490008043A3F53C331A6842F480221A601A680C
:1034A00042F480321A60D4E7FEF736FF0546574BE8
:1034B0001B6813F4003FA2D0FEF72EFF401B6428C8
:1034C000F5D903205FE1514B5B6813F4803FA5D130
:1034D0004E4B1B6813F0020F03D02369012B40F001
:1034E0004F814A4A136823F0F803616943EAC10334
:1034F0001360236813F0080F33D0A369002B5CD04E
:10350000434B0122C3F88024FEF706FF05463F4BDC
:103510005B6A13F0020F21D1FEF7FEFE401B02286A
:10352000F5D903202FE1394A136823F0F8036169C4
:1035300043EAC1031360DCE7354B00221A60FEF753
:10354000EBFE0546314B1B6813F0020FD1D0FEF79E
:10355000E3FE401B0228F5D9032014E10120FFF708
:1035600001FF236813F0040F00F09680274BDB69FE
:1035700013F0805F34D1254BDA6942F08052DA6172
:10358000DB6903F080530193019B0125214B1B68EC
:1035900013F4807F26D0E368012B3DD0002B53D15C
:1035A00003F1804303F504331A6A22F001021A6220
:1035B0001A6A22F004021A6233E0154B0022C3F8A3
:1035C0008024FEF7A9FE0546104B5B6A13F0020F3C
:1035D000C7D0FEF7A1FE401B0228F5D90320D2E098
:1035E0000025D3E70B4A136843F480731360FEF79A
:1035F00093FE0646074B1B6813F4807FCBD1FEF782
:103600008BFE801B6428F5D90320BCE0001002402B
:1036100000004242007000405F4A136A43F0010319
:103620001362E36833B3FEF777FE06465A4B1B6A14
:1036300013F0020F2FD1FEF76FFE801B41F288338B
:103640009842F3D903209EE0052B09D0524B1A6A09
:1036500022F001021A621A6A22F004021A62E0E7FA
:103660004D4B1A6A42F004021A621A6A42F00102D1
:103670001A62D6E7FEF750FE0646474B1B6A13F068
:10368000020F08D0FEF748FE801B41F288339842B3
:10369000F3D9032077E0E5B9E369002B72D03E4A05
:1036A000526802F00C02082A56D0022B17D03B4B6E
:1036B00000221A66FEF730FE0446374B1B6813F0F3
:1036C000007F47D0FEF728FE001B0228F5D9032013
:1036D00059E0314AD36923F08053D361DCE72F4BA3
:1036E00000221A66FEF718FE05462B4B1B6813F0E6
:1036F000007F06D0FEF710FE401B0228F5D90320FC
:1037000041E0236AB3F5803F1AD023494B6823F484
:103710007413226A606A024313434B601F4B0122F9
:103720001A66FEF7F9FD04461B4B1B6813F0007F79
:103730000ED1FEF7F1FD001B0228F5D9032022E08F
:10374000154A536823F40033A1680B435360DCE748
:10375000002018E0002016E0012B16D00E4B5B680D
:1037600003F48031226A914211D103F47013626A2A
:1037700093420ED1002006E001207047012002E0B4
:10378000012000E0002002B070BD0120FBE7012015
:10379000F9E70120F7E700BF0010024000004242B5
:1037A0000F4B5B6803F00C02082A01D00D487047EC
:1037B000C3F383420C49885C13F4803F0BD0084B61
:1037C0005B68C3F34043094AD35C064A02FB00F03E
:1037D000B0FBF3F07047064B03FB00F0704700BFEF
:1037E0000010024000127A00ACB60008A8B600082B
:1037F00000093D00002800F0A08070B50D46044689
:10380000524B1B6803F007038B420BD24F4A1368DD
:1038100023F007030B431360136803F007038B4285
:1038200040F08D80236813F0020F17D013F0040FBF
:1038300004D0474A536843F4E0635360236813F0AD
:10384000080F04D0424A536843F460535360404A1F
:10385000536823F0F003A1680B435360236813F00F
:10386000010F31D06368012B20D0022B25D0384ABC
:10387000126812F0020F64D035494A6822F0030240
:1038800013434B60FEF748FD0646314B5B6803F07F
:103890000C036268B3EB820F16D0FEF73DFD801B70
:1038A00041F288339842F0D9032045E0284A126853
:1038B00012F4003FE0D101203EE0254A126812F0E8
:1038C000007FD9D1012037E0204B1B6803F00703AC
:1038D000AB420AD91D4A136823F007032B43136038
:1038E000136803F00703AB422DD1236813F0040FD4
:1038F00006D0174A536823F4E063E1680B43536032
:10390000236813F0080F07D0114A536823F460535B
:10391000216943EAC1035360FFF742FF0C4B5B6828
:10392000C3F303130B4AD35CD8400B4B18600B4B0B
:103930001868FEF727F8002070BD012070470120AD
:10394000FAE70120F8E70120F6E700BF0020024077
:103950000010024098B60008180000202000002047
:10396000014B1868704700BF1800002008B5FFF72A
:10397000F7FF044B5B68C3F30223034AD35CD840D0
:1039800008BD00BF0010024090B6000808B5FFF760
:10399000E7FF044B5B68C3F3C223034AD35CD84000
:1039A00008BD00BF0010024090B600080F2303605E
:1039B0000B4B5A6802F0030242605A6802F0F002B0
:1039C00082605A6802F4E062C2605B68DB0803F45C
:1039D000E0630361034B1B6803F007030B60704750
:1039E000001002400020024070B582B00446036817
:1039F00013F0010F36D03F4BDB6913F0805F49D1E4
:103A00003C4BDA6942F08052DA61DB6903F08053A3
:103A10000193019B0125384B1B6813F4807F3BD039
:103A2000344B1B6A13F4407313D0626802F4407283
:103A30009A420ED02F4A136A23F440702F49012670
:103A4000C1F840640026C1F84064106213F0010F11
:103A500036D1284A136A23F4407361680B4313621A
:103A6000002D3ED1236813F0020F06D0214A53687F
:103A700023F44043A1680B435360236813F0100FF5
:103A800034D01C4A536823F4800361690B435360AC
:103A900000202CE00025BEE7174A136843F480732A
:103AA0001360FEF739FC0646134B1B6813F4807F46
:103AB000B6D1FEF731FC801B6428F5D9032016E04F
:103AC000FEF72AFC06460B4B1B6A13F0020FC0D10F
:103AD000FEF722FC801B41F288339842F3D9032081
:103AE00005E0D36923F08053D361BBE7002002B027
:103AF00070BD00BF00100240007000400000424254
:103B000008B501380F2863D8DFE800F03557622F79
:103B10006262623262626262626262082F4B5A685B
:103B2000186810F0807054D0C2F383432C49C85CED
:103B300012F4803F15D0294B5B68C3F34043294AF8
:103B4000D25C294BB3FBF2F303FB00F0234B5B6821
:103B500013F4800F3DD14000244BA3FB00304008FC
:103B600037E0234B03FB00F0F0E7FFF719FE30E0EE
:103B7000FFF716FE2DE0194B1B6A40F202321A4085
:103B8000B2F5817F26D003F44073B3F5007F04D0F3
:103B9000B3F5407F09D000201BE0104A526A12F0B2
:103BA000020FF5D049F6404013E00C4B186810F4B2
:103BB00000300ED04FF224400BE0FFF7E7FE074B3A
:103BC0005B68C3F3813301335B00B0FBF3F000E0CB
:103BD000002008BD4FF40040FBE700BF001002408A
:103BE000C0B60008BCB6000800127A00ABAAAAAAA8
:103BF00000093D0030B4036A026A22F00102026249
:103C00004268846924F0730C0C6844EA0C0423F0C5
:103C1000020C8B6843EA0C03114DA84203D005F552
:103C20000065A84205D123F00803CD682B4323F09B
:103C300004030B4DA84203D005F50065A84207D147
:103C400022F440724D6945EA020C8A6942EA0C028C
:103C5000426084614A684263036230BC704700BFBF
:103C6000002C014030B4036A026A22F480720262BE
:103C70004268C46924F0730C0C6844EA0C0523F410
:103C800000738C6843EA0423114CA04203D004F56E
:103C90000064A04206D123F40063CC6843EA042305
:103CA00023F480630A4CA04203D004F50064A042D0
:103CB00007D122F440524C6942EA04128C6942EA6C
:103CC00004124260C5614A68C263036230BC704737
:103CD000002C014030B4036A026A22F4805202626E
:103CE0004468C26922F4E6420D6842EA052223F4E0
:103CF00000538D6843EA0533094DA84203D005F50A
:103D00000065A84204D124F480444D6944EA851436
:103D10004460C2614A680264036230BC704700BFFD
:103D2000002C014010B4036A046A24F00104046208
:103D3000846924F0F00C4CEA021223F00A030B43CE
:103D40008261036210BC704710B4036A046A24F0F5
:103D500010040462846924F4704C4CEA023223F0AB
:103D6000A00343EA01138261036210BC70478368B9
:103D700023F070030B4343F0070383607047000098
:103D800090F83D30DBB2012B2FD1022380F83D307B
:103D90000268D36843F00103D3600368154A934275
:103DA00018D002F50062934214D0B3F1804F11D0C5
:103DB000A2F5983293420DD002F58062934209D069
:103DC00002F58062934205D01A6842F001021A603F
:103DD000002070479A6802F00702062A07D01A6886
:103DE00042F001021A600020704701207047002055
:103DF000704700BF002C0140704770477047704704
:103E0000704710B5044603681A6912F0020F11D00A
:103E1000DA6812F0020F0DD06FF002021A6101236E
:103E2000037703689B6913F0030F70D0FFF7E6FF79
:103E30000023237723681A6912F0040F12D0DA687E
:103E400012F0040F0ED06FF004021A6102232377E0
:103E500023689B6913F4407F5FD02046FFF7CEFFB5
:103E60000023237723681A6912F0080F12D0DA684A
:103E700012F0080F0ED06FF008021A6104232377A6
:103E80002368DB6913F0030F4ED02046FFF7B6FF1F
:103E90000023237723681A6912F0100F12D0DA6812
:103EA00012F0100F0ED06FF010021A610823237762
:103EB0002368DB6913F4407F3DD02046FFF79EFF67
:103EC0000023237723681A6912F0010F03D0DA6800
:103ED00012F0010F36D123681A6912F0800F03D057
:103EE000DA6812F0800F34D123681A6912F0400F9B
:103EF00003D0DA6812F0400F32D123681A6912F049
:103F0000200F03D0DA6812F0200F30D110BDFFF778
:103F100074FF2046FFF773FF8AE72046FFF76DFF27
:103F20002046FFF76CFF9BE72046FFF766FF204621
:103F3000FFF765FFACE72046FFF75FFF2046FFF77E
:103F40005EFFBDE76FF001021A612046FDF77CFCC1
:103F5000C1E76FF080021A61204600F0A9FAC3E7BA
:103F60006FF040021A612046FFF74AFFC5E76FF085
:103F700020021A61204600F09AFAC7E70368244A33
:103F8000904212D002F5006290420ED0B0F1804F04
:103F90000BD0A2F59832904207D002F58062904291
:103FA00003D002F58062904203D123F070034A6887
:103FB0001343174A904212D002F5006290420ED08D
:103FC000B0F1804F0BD0A2F59832904207D002F5A5
:103FD0008062904203D002F58062904203D123F4C4
:103FE0004073CA68134323F080034A691343036094
:103FF0008B68C3620B688362054B984203D003F55C
:104000000063984201D10B69036301234361704748
:10401000002C014040B310B5044690F83D30F3B198
:10402000022384F83D30214651F8040BFFF7A6FF28
:10403000012384F8463084F83E3084F83F3084F819
:10404000403084F8413084F8423084F8433084F8BA
:10405000443084F8453084F83D30002010BD80F8AD
:104060003C30FDF753FEDBE70120704740B310B54D
:10407000044690F83D30F3B1022384F83D302146E8
:1040800051F8040BFFF77AFF012384F8463084F8D7
:104090003E3084F83F3084F8403084F8413084F872
:1040A000423084F8433084F8443084F8453084F852
:1040B0003D30002010BD80F83C30FFF79DFEDBE76F
:1040C00001207047002856D070B50D46044690F880
:1040D0003D30002B4AD0022384F83D30226893689B
:1040E00023F4804323F007039360214651F8040B27
:1040F000FFF744FF21688B688A690E6A28681843B5
:1041000022F4407222F00302AB68D5F818C043EAEB
:104110000C23134323F47C4323F0FC03EA68D5F813
:104120001CC042EA0C221A432B6A1B03D5F810C0AC
:1041300043EA0C13134326F022066A686D6942EACB
:1041400005123243886021688B6123681A6201235B
:1041500084F8463084F83E3084F83F3084F84230AA
:1041600084F8433084F83D30002070BD80F83C3046
:10417000FDF70CFEAFE701207047000030B4036A82
:10418000026A22F0100202624468826922F4E64266
:104190000D6842EA052223F020038D6843EA0513E7
:1041A000114DA84203D005F50065A84206D123F0C1
:1041B0008003CD6843EA051323F040030A4DA8426B
:1041C00003D005F50065A84207D124F440644D6989
:1041D00044EA85048D6944EA8504446082614A6842
:1041E0008263036230BC7047002C014038B590F800
:1041F0003C30012B66D004460D46012380F83C304C
:104200000C2A5AD8DFE802F0075959591B59595955
:104210003059595944000068FFF7ECFC2268936953
:1042200043F0080393612268936923F004039361C8
:104230002268936929690B43936100203EE000687E
:10424000FFF79CFF2268936943F40063936122683F
:10425000936923F48063936122689369296943EA2F
:1042600001239361002029E00068FFF7FBFC22682E
:10427000D36943F00803D3612268D36923F00403B0
:10428000D3612268D36929690B43D361002015E00B
:104290000068FFF71FFD2268D36943F40063D36110
:1042A0002268D36923F48063D3612268D3692969C2
:1042B00043EA0123D361002000E00120002384F8B9
:1042C0003C3038BD0220FCE710B4846824F47F4CF5
:1042D00042EA03220A4342EA0C02826010BC7047A1
:1042E00090F83C30012B78D010B50446012380F8BB
:1042F0003C30022380F83D300268936823F47F430A
:1043000023F0770393600B68602B4CD029D8402BA7
:1043100054D00CD9502B22D1CA6849680068FFF7E5
:1043200001FD50212068FFF722FD002005E0202B31
:104330000DD009D9302B0AD00120012384F83D305B
:10434000002384F83C3010BD0BB1102B05D1194669
:104350002068FFF70CFD0020EFE70120EDE70120CA
:10436000EBE7B3F5805F34D0B3F5005F0CD1CB68D9
:104370004A6889680068FFF7A7FF2268936843F4DA
:10438000804393600020D8E7702B24D1CB684A6823
:1043900089680068FFF798FF2268936843F0770305
:1043A00093600020C9E7CA6849680068FFF7CCFC41
:1043B00060212068FFF7DBFC0020BEE7CA6849687F
:1043C0000068FFF7AFFC40212068FFF7D0FC002019
:1043D000B3E70020B1E70120AFE7022070470000FB
:1043E00090F83C20012A34D010B40346012280F812
:1043F0003C20022280F83D2002685068946820F03A
:10440000700C086840EA0C0050601A68124882423A
:1044100012D000F5006082420ED0B2F1804F0BD076
:10442000A0F59830824207D000F58060824203D028
:1044300000F58060824204D124F080044968214361
:104440009160012283F83D20002083F83C0010BCDD
:1044500070470220704700BF002C0140024690F8D0
:104460003C30012B21D0012380F83C30CB6823F471
:1044700040738868034323F480634868034323F44C
:1044800000630868034323F480530869034323F45B
:1044900000534869034323F48043C9690B431168FF
:1044A0004B64002082F83C00704702207047704740
:1044B0007047000010B504460268136923F44053A6
:1044C000C1680B43136183680269134342691A434D
:1044D0000168CB6823F4B05323F00C031343CB6083
:1044E0000268536923F4407381690B435361026886
:1044F000134B9A4220D0FFF739FA024602EB8202B0
:1045000002EB820263689B00B2FBF3F20D48A0FB52
:1045100002314909642303FB11231B013233A0FB41
:1045200003035B0903F0F00202EB011203F00F0337
:10453000216813448B6010BDFFF728FA0246DDE7BF
:10454000003801401F85EB512DE9F84305460F4621
:1045500016469946DDF820802B681C6837EA04046B
:104560000CBF01240024B4422DD1B8F1FF3FF3D099
:10457000B8F1000F05D0FDF7CFFEA0EB09004045D4
:10458000EAD92A6802F10C0353E8003F23F4D07300
:104590000C3242E800310029F3D12A6802F11403F9
:1045A00053E8003F23F00103143242E800310029B0
:1045B000F3D1202385F8413085F84230002385F877
:1045C0004030032000E00020BDE8F88360B310B560
:1045D000044690F8413013B3242384F84130226814
:1045E000D36823F40053D3602046FFF763FF2268AB
:1045F000136923F4904313612268536923F02A035B
:1046000053612268D36843F40053D3600020606490
:10461000202384F8413084F84230606310BD80F874
:104620004030FDF7F9FDD7E7012070472DE9F04153
:1046300082B01E4690F84130DBB2202B4BD10446AD
:104640000D46904600294AD00AB9012044E00023D3
:104650004364212380F84130FDF75EFE0746A4F84D
:104660002480A4F82680A368B3F5805F02D04FF0C1
:1046700000080FE02369FBB14FF000080AE038F8AA
:10468000023B2268C3F308035360E28C92B2013A02
:1046900092B2E284E38C9BB28BB100963B4600223F
:1046A00080212046FFF750FFD8B9002DE7D015F83C
:1046B000012B23685A60E8E7A8460025EAE7009640
:1046C0003B46002240212046FFF73EFF58B92023F9
:1046D00084F8413000E0022002B0BDE8F081012002
:1046E000FAE70320F8E70320F6E70000EFF305837D
:1046F00093B9EFF3108393B90C4B1868022804D0D8
:1047000080B90A4B01221A607047EFF31183002B26
:10471000F6D06FF0050070476FF0050070476FF03E
:10472000050070474FF0FF30704700BF5013002066
:1047300008B5EFF30583B3B9EFF31083B3B90E4BAC
:104740001B68022B08D0012B13D10B4B02221A60DD
:1047500001F0E8F8002008BDEFF31182002AF2D042
:104760006FF00500F7E76FF00500F4E76FF0050064
:10477000F1E74FF0FF30EEE750130020F0B587B0BF
:1047800000240494EFF30584002C44D1EFF310834C
:10479000002B40D1344B1B68022B16D000283AD096
:1047A00000238DF817306AB3156895B1936903B982
:1047B00018235C1E372C52D8546814F0010F50D1C6
:1047C00056694EB14FEA960C08E0EFF3118313BB24
:1047D000E4E70DF11705E9E74FF0800C946834B178
:1047E000D768B7F5C07F02D3176907B1B6B914B15E
:1047F0004FF0FF340CE0D46894B914699CB14FF0C9
:10480000FF3405E0002418234FF0800C0DF117054C
:10481000012C0AD0ACB1049807B0F0BD0124F7E731
:104820004FF0FF34F4E70024F2E714699268029233
:10483000019400930B466246294601F003F8049068
:10484000E9E704AA019200930B461FFA8CF229466D
:1048500001F034F80128DED000230493DBE70020C8
:10486000DAE70020D8E700BF50130020034B0360B5
:10487000034B0B6080231360704700BFD0110020F2
:10488000D00F0020034B0360034B0B604FF4807389
:1048900013607047500E00204C0A002000F10803FE
:1048A00043604FF0FF328260C36003610023036006
:1048B000704700230361704743684B609A688A60C1
:1048C000516099600861036801330360704730B438
:1048D0000D68B5F1FF3F11D000F108031C465B687D
:1048E0001A68AA42FAD963684B6099608C6061606B
:1048F000086103680133036030BC70470469F2E764
:104900000369416882688A60416851605A688242DE
:1049100006D0002202611A68013A1A6018687047CE
:1049200082685A60F5E7000082B0002301930D4BC6
:104930001B68B3F1FF3F08D04FF0500383F3118899
:10494000BFF36F8FBFF34F8FFEE74FF0500383F33A
:104950001188BFF36F8FBFF34F8F019B002BFCD0EB
:1049600002B070472400002006480068006880F309
:10497000088862B661B6BFF34F8FBFF36F8F00DF59
:1049800000BF000008ED00E04FF0807340F8043CE9
:1049900021F0010140F8081C034B40F80C3C40F8A2
:1049A000202C4038704700BF294900080000000053
:1049B000074B19680868B0E8F00F80F30988BFF367
:1049C0006F8F4FF0000080F311884EF00D0E70478E
:1049D000F0B400204FF0500383F31188BFF36F8FC2
:1049E000BFF34F8F0B4A136801331360012B00D0C4
:1049F00070474FF0E023D3F8043D13F0FF0FF7D0DA
:104A00004FF0500383F31188BFF36F8FBFF34F8FC5
:104A1000FEE700BF24000020094B1B6843B94FF09C
:104A2000500383F31188BFF36F8FBFF34F8FFEE7FF
:104A3000013B034A13600BB983F31188704700BF31
:104A40002400002000000000000000000000000022
:104A5000EFF30980BFF36F8F0D4B1A6820E9F00F59
:104A600010602DE908404FF0500080F3118801F0EC
:104A7000EBF84FF0000080F31188BDE8084019689A
:104A80000868B0E8F00F80F30988BFF36F8F7047B4
:104A9000F0B4002008B54FF0500383F31188BFF342
:104AA0006F8FBFF34F8F00F0A1FF28B14FF0E023CD
:104AB0004FF08052C3F8042D002383F3118808BD02
:104AC0004FF0E022002313619361054B1B680549F9
:104AD000A1FB03139B09013B53610723136170473B
:104AE00018000020D34D621010B582B02A4B1A78FE
:104AF000D2B20192FF221A701B78DBB28DF803301C
:104B00009DF8033003F05003244A1370244B07220E
:104B10001A6009E0224A1368013B13609DF80330D4
:104B20005B00DBB28DF803309DF8033013F0800F8B
:104B3000F0D11B4B1B68032B08D04FF0500383F3BD
:104B40001188BFF36F8FBFF34F8FFEE71B02144A2C
:104B5000136003F4E0631360019BDBB20E4A137031
:104B60004FF0E023D3F8202D42F47002C3F8202D3B
:104B7000D3F8202D42F07042C3F8202DFFF7A0FF9C
:104B80000024084B1C60FFF7EFFE01F05DF8FFF713
:104B9000CBFE204602B010BD00E400E05813002018
:104BA0005413002024000020EFF305830F2B0FD9AE
:104BB000114A9B5CDBB2114A12789A4208D94FF035
:104BC000500383F31188BFF36F8FBFF34F8FFEE75E
:104BD0004FF0E023D3F80C3D03F4E063084A126879
:104BE000934208D94FF0500383F31188BFF36F8FBE
:104BF000BFF34F8FFEE77047F0E300E0581300204B
:104C000054130020134A12F0070F1FD0D11D21F0BA
:104C10000701C1F51C43403313440A460E480260A5
:104C2000002141601344083B23F007030B48036055
:104C300059601960991A51601360094B1960094B4A
:104C40001960094B4FF000421A60704749F6404323
:104C5000E4E700BF741300206C13002068130020E9
:104C600060130020641300205C130020154B1A46CB
:104C70001B688342FBD3516802EB010C844509D0C9
:104C8000416800EB010C634509D00360904218D0E5
:104C9000106070474068014451601046F0E710B45E
:104CA000094C2468A3420AD05B6819444160136828
:104CB0001B680360904200D0106010BC7047046015
:104CC000F8E770476C1300206813002038B50446DD
:104CD00000F07EFE364B1B68B3B1364B1B681C429E
:104CE0004CD1002C4CD004F1080214F0070F02D074
:104CF00022F007020832002A51D02F4B1B68934242
:104D00004FD32E490C6804E0FFF77CFFE5E721460E
:104D10001C466368934202D22368002BF7D1244BD0
:104D20001B68A3423FD00D68083523680B60636899
:104D30009B1A102B10D9A01810F0070F08D04FF0B5
:104D4000500383F31188BFF36F8FBFF34F8FFEE7DC
:104D500043606260FFF78AFF626817490B689B1A1D
:104D60000B60174909688B4201D215490B60114B42
:104D70001B68134363600023236002E0002500E00A
:104D8000002500F0BFFE15F0070F0ED04FF05003C6
:104D900083F31188BFF36F8FBFF34F8FFEE70025BA
:104DA000EFE70025EDE70025EBE7284638BD00BF1B
:104DB000681300205C130020641300206C13002093
:104DC0006013002080B338B50446A0F1080550F800
:104DD000043C164A1268134208D14FF0500383F383
:104DE0001188BFF36F8FBFF34F8FFEE750F8081C99
:104DF00041B14FF0500383F31188BFF36F8FBFF3BE
:104E00004F8FFEE723EA020340F8043C00F0E0FD88
:104E100054F8041C064A13680B4413602846FFF735
:104E200025FF00F06FFE38BD704700BF5C13002007
:104E30006413002010B50446FFF7CCFDA26BE36BB2
:104E40009A4204D00024FFF7E7FD204610BD01245C
:104E5000F9E710B50446FFF7BDFDA36B23B90124A4
:104E6000FFF7DAFD204610BD0024F9E770B50446CF
:104E70001546866B026C5AB903681BB100200136D7
:104E8000A66370BD406801F00FF800236360F6E789
:104E90006DB9806801F048FCA368226C1344A360DC
:104EA0006268934219D32368A3602846E7E7C06885
:104EB00001F03AFCE368226C51429B1AE3602268DD
:104EC000934202D263680B44E360022D01D00020BC
:104ED000D5E726B1013E0020D1E72846CFE70020E4
:104EE000CDE708B50346026C62B10846D9681144A3
:104EF000D960D3F804C0614501D31968D960D96875
:104F000001F012FC08BD38B50546FFF763FD95F8C2
:104F1000454064B201E0013C64B2002C0ADD6B6ADA
:104F200043B105F1240000F015FF0028F3D000F094
:104F3000A5FFF0E7FF2385F84530FFF76DFDFFF78C
:104F400049FD95F8444064B201E0013C64B2002C94
:104F50000ADD2B6943B105F1100000F0FBFE0028CB
:104F6000F3D000F08BFFF0E7FF2385F84430FFF724
:104F700053FD38BD38B5E0B10D460446FFF72AFDB4
:104F80002368E26B216C01FB023060600020A063AB
:104F9000A360013A02FB0133E360FF2384F844304D
:104FA00084F84530FDB9236963B9FFF735FD012069
:104FB00038BD4FF0500383F31188BFF36F8FBFF3F9
:104FC0004F8FFEE704F1100000F0C4FE0028ECD083
:104FD0004FF0E0234FF08052C3F8042DBFF34F8F02
:104FE000BFF36F8FE1E704F11000FFF757FC04F106
:104FF0002400FFF753FCD8E738B51D46049C0B4648
:1050000049B92460E063236401212046FFF7B2FF21
:1050100084F84C5038BD2260F4E740B94FF050039B
:1050200083F31188BFF36F8FBFF34F8FFEE710B587
:1050300084B01C46844653B192B189B94FF05003F5
:1050400083F31188BFF36F8FBFF34F8FFEE74FF0ED
:10505000500383F31188BFF36F8FBFF34F8FFEE7C9
:105060006AB150230393039B502B13D04FF050038E
:1050700083F31188BFF36F8FBFF34F8FFEE70029D3
:10508000EFD04FF0500383F31188BFF36F8FBFF35E
:105090004F8FFEE7012384F8463000949DF81830C6
:1050A0006046FFF7A9FF204604B010BDF0B585B0FB
:1050B000019288B10F461D460446B1B1022D20D1A0
:1050C000E36B012B1DD04FF0500383F31188BFF326
:1050D0006F8FBFF34F8FFEE74FF0500383F31188BC
:1050E000BFF36F8FBFF34F8FFEE7036C002BE5D04C
:1050F0004FF0500383F31188BFF36F8FBFF34F8FCF
:10510000FEE700F0C1FE064658B9019B002B48D0CF
:105110004FF0500383F31188BFF36F8FBFF34F8FAE
:10512000FEE700263DE02A4639462046FFF79EFE70
:10513000636A7BB948B14FF0E0234FF08052C3F867
:10514000042DBFF34F8FBFF36F8FFFF765FC012076
:1051500005B0F0BD04F1240000F0FCFD0028F4D0FF
:105160004FF0E0234FF08052C3F8042DBFF34F8F70
:10517000BFF36F8FE9E7FFF74FFC0020E8E702A8D5
:1051800000F02EFE012619E0002384F8443021E0CF
:10519000002384F8453023E02046FFF7B4FE00F0FA
:1051A000B1FCFFF717FCA26BE36B9A42BBD3022D55
:1051B000B9D0019B002BDED0002EE0D0FFF72CFCF5
:1051C00000F006FCFFF706FC94F8442052B2B2F15E
:1051D000FF3FD9D094F8452052B2B2F1FF3FD7D06B
:1051E000FFF71AFC01A902A800F006FED8B9204674
:1051F000FFF720FE0028CFD0019904F1100000F045
:1052000075FD2046FFF77FFE00F07CFC0028C8D12A
:105210004FF0E0234FF08052C3F8042DBFF34F8FBF
:10522000BFF36F8FBDE72046FFF76DFE00F06AFC0D
:1052300000208DE72DE9F84390B10F4616461C4635
:105240000546B1B1022C20D1EB6B012B1DD04FF0E4
:10525000500383F31188BFF36F8FBFF34F8FFEE7C7
:105260004FF0500383F31188BFF36F8FBFF34F8F5D
:10527000FEE7036C002BE5D04FF0500383F3118859
:10528000BFF36F8FBFF34F8FFEE7FFF78DFCEFF398
:1052900011884FF0500383F31188BFF36F8FBFF372
:1052A0004F8FAA6BEB6B9A4206D3022C04D00020DE
:1052B00088F31188BDE8F88395F845904FFA89F98D
:1052C000224639462846FFF7D1FDB9F1FF3F06D007
:1052D00009F101035BB285F845300120E8E76B6A0C
:1052E0000BB90120E4E705F1240000F033FD18B10B
:1052F00026B101203060DBE70120D9E70120D7E7A4
:10530000F0B585B0019290B10F460446C1B100F0EE
:10531000BBFD064600BB019B002B5ED04FF0500347
:1053200083F31188BFF36F8FBFF34F8FFEE74FF00A
:10533000500383F31188BFF36F8FBFF34F8FFEE7E6
:10534000036C002BE3D04FF0500383F31188BFF3BD
:105350006F8FBFF34F8FFEE700263EE039462046B1
:10536000FFF7BFFD013DA563236923B9FFF754FB98
:10537000012005B0F0BD04F1100000F0EBFC0028A6
:10538000F4D04FF0E0234FF08052C3F8042DBFF368
:105390004F8FBFF36F8FE9E7FFF73EFB0020E8E791
:1053A00002A800F01DFD012621E0002384F844300E
:1053B00029E0002384F845302BE02046FFF7A3FDC9
:1053C00000F0A0FB09E02046FFF79DFD00F09AFBEE
:1053D0002046FFF73EFD00283FD1FFF7FBFAA56B03
:1053E000002DBBD1019B002BD6D0002ED8D0FFF7CB
:1053F00013FB00F0EDFAFFF7EDFA94F844305BB2DE
:10540000B3F1FF3FD1D094F845305BB2B3F1FF3F29
:10541000CFD0FFF701FB01A902A800F0EDFC0028A6
:10542000D1D12046FFF715FD0028C6D0019904F11F
:10543000240000F05BFC2046FFF765FD00F062FBF6
:105440000028CAD14FF0E0234FF08052C3F8042D5A
:10545000BFF34F8FBFF36F8FBFE7002089E70000D6
:105460000023072B0CD8074A52F833200AB1013326
:10547000F7E7044A42F8331002EBC302506070476A
:10548000704700BFB4AF002070B504460D46164605
:10549000FFF7A0FA94F844305BB2B3F1FF3F0DD0B0
:1054A00094F845305BB2B3F1FF3F0BD0FFF7B4FA8D
:1054B000A36B5BB12046FFF726FD70BD002384F887
:1054C0004430EDE7002384F84530EFE732462946C3
:1054D00004F1240000F022FCECE70000084B1B68FC
:1054E0001B6823B9074B4FF0FF321A607047044B1B
:1054F0001B68DB68DB685A68024B1A60704700BFA4
:1055000064B00020FCAF00202DE9F04780460D4636
:1055100017469946089EDDF824A00A9C9200A52112
:10552000206B01F058F8236B07F18042013A03EB3E
:10553000820727F007074FF0000CBCF10F0F09D8C6
:1055400015F80C3004EB0C0282F8343013B10CF176
:10555000010CF2E7002384F84330372E00D93726B8
:10556000E662E66400252565201DFFF7A2F904F137
:105570001800FFF79EF92461C6F13806A66164623F
:10558000C4F8785184F87C514FF49072294604F1A4
:10559000580001F020F8194BE36503F16802226618
:1055A000D033636601220023C4E93C2343F20E3367
:1055B000A4F8F8304AF6CD33A4F8FA3041F2342397
:1055C000A4F8FC304EF26D63A4F8FE304DF6EC63A7
:1055D000A4F800310523A4F802310B23A4F8043108
:1055E0004A4641463846FFF7CFF92060BAF1000F2E
:1055F00001D0CAF80040BDE8F08700BF20B6002007
:1056000038B5002407E004EB840293000E481844E8
:10561000FFF744F90134372CF5D90C4D2846FFF734
:105620003DF90B4C2046FFF739F90A48FFF736F9E8
:105630000948FFF733F90948FFF730F9084B1D60B7
:10564000084B1C6038BD00BF90B000207CB000202B
:1056500068B000204CB0002038B0002020B00020FE
:1056600064B0002060B0002010B50446FFF7B2F926
:10567000224A136801331360214B1B685BB1214B35
:105680001B686BB91E4B1B68DA6AE36A9A4207D83B
:105690001B4B1C6004E01A4B1C601368012B29D0C3
:1056A000194A1368013313606364E06A174B1B687F
:1056B000984201D9154B186000EB8000211D144B56
:1056C00003EB8000FFF7F8F8FFF7A6F90D4B1B6816
:1056D0007BB10B4B1B68DA6AE36A9A4209D24FF03E
:1056E000E0234FF08052C3F8042DBFF34F8FBFF378
:1056F0006F8F10BDFFF784FFD2E700BF1CB0002002
:10570000F0B4002010B0002000B0002014B0002041
:1057100090B0002010B50446583000F075FF94F8A2
:105720007D3163B1012B11D0022B0ED04FF050030D
:1057300083F31188BFF36F8FBFF34F8FFEE7206BAA
:10574000FFF740FB2046FFF73DFB10BD2046FFF76B
:1057500039FBFAE70F4B1B68D3B110B5FFF73AF9E5
:105760000D4BDB68DC68201DFFF7CAF80B4A136895
:10577000013B1360074A1368013B1360FFF74CF9C4
:105780002046FFF7C7FF034B1B68002BE6D110BD77
:10579000704700BF34B0002038B000201CB000209B
:1057A00008B5FFF7D7FF074B1B68012BF9D94FF05E
:1057B000E0234FF08052C3F8042DBFF34F8FBFF3A7
:1057C0006F8FEEE790B0002070B504460D46174B82
:1057D0001E68174B18680430FFF792F8B4F1FF3FCA
:1057E0000DD03444124B1B685C60A64210D9114B9B
:1057F00018680F4B19680431FFF769F870BD002D68
:10580000EFD00B4B196804310B48FFF755F8F5E75B
:105810000A4B1868064B19680431FFF758F8084B13
:105820001B68A342EAD9064B1C60E7E718B00020CA
:10583000F0B4002060B0002020B0002064B0002050
:10584000FCAF002030B587B00B9C8CB10C9DC5B16E
:105850004FF4C0750495049DB5F5C07F1AD04FF084
:10586000500383F31188BFF36F8FBFF34F8FFEE7B1
:105870004FF0500383F31188BFF36F8FBFF34F8F47
:10588000FEE74FF0500383F31188BFF36F8FBFF330
:105890004F8FFEE70C9D2C63022485F87D41002488
:1058A0000394029505AC01940A9C0094FFF72CFE2A
:1058B0000C98FFF7D9FE059807B030BD2DE9F043ED
:1058C00085B00746884614461E469000FFF7FEF94D
:1058D00010B381464FF4C070FFF7F8F90546A8B140
:1058E000C0F83090002380F87D31039302900D9B27
:1058F00001930C9B00933346224641463846FFF7FE
:1059000003FE2846FFF7B0FE012007E04846FFF7F8
:1059100059FA4FF0FF3001E04FF0FF3005B0BDE81D
:10592000F083000010B588B000240594069407AAFF
:1059300006A905A8FEF79AFF059B0293069B019313
:1059400000942346079A1A491A48FFF77BFF1A4B1F
:105950001860E8B100F05CFB01281AD14FF0500349
:1059600083F31188BFF36F8FBFF34F8F134B1B6807
:105970005833134A1360134B4FF0FF321A60124B27
:1059800001221A60114B00221A60FFF7ADF803E004
:105990000020B0F1FF3F01D008B010BD4FF0500320
:1059A00083F31188BFF36F8FBFF34F8FFEE700BF04
:1059B000D0B60008A1570008F8AF0020F0B40020CE
:1059C00034000020FCAF002010B0002018B00020F0
:1059D000024A136801331360704700BFF4AF002020
:1059E000014B1868704700BF18B00020F8B53A4B5B
:1059F0001B68002B64D1394B1D6801351D60C5B98A
:105A0000374B1B681B6843B14FF0500383F3118879
:105A1000BFF36F8FBFF34F8FFEE7314A1168314BF1
:105A2000186810601960304A136801331360FFF77B
:105A300055FD2E4B1B68AB4238D900272C4B1B68F9
:105A4000DB6A03EB83039A002A4B9B58012B3CD95A
:105A500001273AE00127224B1B681B6843B3204B08
:105A60001B68DB68DC6863689D4226D3261D3046D0
:105A7000FEF746FFA36A1BB104F11800FEF740FFD2
:105A8000E36A1D4A1268934201D91B4A136003EB73
:105A900083039A00314617481044FEF70DFFE26A6F
:105AA000134B1B68DB6A9A42D4D2D4E70027D2E7B3
:105AB0000E4B4FF0FF321A60C0E70C4A1360BDE78F
:105AC0000E4A13680133136000270D4B1B6803B1A6
:105AD00001273846F8BD00BFF4AF002018B0002001
