:020000040800F2
:1000000000C00020252A0008A9210008AB21000813
:10001000AD210008AF210008B12100080000000058
:10002000000000000000000000000000F160000877
:10003000B32100080000000091610008D5610008AC
:100040006D2A00086D2A00086D2A00086D2A000834
:100050006D2A00086D2A00086D2A00086D2A000824
:100060006D2A00086D2A00086D2A00086D2A000814
:100070006D2A00086D2A00086D2A00086D2A000804
:100080006D2A00086D2A00086D2A00086D2A0008F4
:100090006D2A00086D2A00086D2A00086D2A0008E4
:1000A0006D2A00086D2A00086D2A00086D2A0008D4
:1000B0006D2A00086D2A00086D2A00086D2A0008C4
:1000C0006D2A00086D2A00086D2A00086D2A0008B4
:1000D0006D2A00086D2A00086D2A00086D2A0008A4
:1000E0006D2A00086D2A00086D2A00086D2A000894
:1000F0006D2A00086D2A00086D2A00086D2A000884
:100100006D2A00086D2A00086D2A00086D2A000873
:100110006D2A00086D2A0008B5210008C5210008D5
:100120006D2A00086D2A00086D2A00086D2A000853
:1001300000000000000000000000000000000000BF
:1001400000000000000000000000000000000000AF
:10015000000000000000000000000000000000009F
:10016000000000000000000000000000000000008F
:10017000000000000000000000000000000000007F
:10018000000000000000000000000000000000006F
:10019000000000000000000000000000000000005F
:1001A000000000000000000000000000000000004F
:1001B000000000000000000000000000000000003F
:1001C000000000000000000000000000000000002F
:1001D000000000000000000000000000000000001F
:0401E0005FF8E0F1F3
:1001F00010B5054C237833B9044B13B10448AFF361
:1002000000800123237010BDD806002000000000EC
:1002100048C5000808B5034B1BB103490348AFF3B9
:10022000008008BD00000000DC06002048C5000872
:1002300081F0004102E000BF83F0004330B54FEA97
:1002400041044FEA430594EA050F08BF90EA020F04
:100250001FBF54EA000C55EA020C7FEA645C7FEA97
:10026000655C00F0E2804FEA5454D4EB5555B8BFBA
:100270006D420CDD2C4480EA020281EA030382EA2B
:10028000000083EA010180EA020281EA0303362DBD
:1002900088BF30BD11F0004F4FEA01314FF4801C90
:1002A0004CEA113102D0404261EB410113F0004FA2
:1002B0004FEA03334CEA133302D0524263EB430359
:1002C00094EA050F00F0A780A4F10104D5F1200EF7
:1002D0000DDB02FA0EFC22FA05F2801841F1000152
:1002E00003FA0EF2801843FA05F359410EE0A5F126
:1002F00020050EF1200E012A03FA0EFC28BF4CF057
:10030000020C43FA05F3C01851EBE37101F000450C
:1003100007D54FF0000EDCF1000C7EEB00006EEB19
:100320000101B1F5801F1BD3B1F5001F0CD34908A3
:100330005FEA30004FEA3C0C04F101044FEA4452FA
:1003400012F5800F80F09A80BCF1004F08BF5FEA81
:10035000500C50F1000041EB045141EA050130BD61
:100360005FEA4C0C404141EB0101013C28BFB1F573
:10037000801FE9D291F0000F04BF01460020B1FABE
:1003800081F308BF2033A3F10B03B3F120020CDA91
:100390000C3208DD02F1140CC2F10C0201FA0CF06F
:1003A00021FA02F10CE002F11402D8BFC2F1200CD4
:1003B00001FA02F120FA0CFCDCBF41EA0C0190408A
:1003C000E41AA2BF01EB0451294330BD6FEA0404D3
:1003D0001F3C1CDA0C340EDC04F11404C4F12002BE
:1003E00020FA04F001FA02F340EA030021FA04F3D0
:1003F00045EA030130BDC4F10C04C4F1200220FA27
:1004000002F001FA04F340EA0300294630BD21FA64
:1004100004F0294630BD94F0000F83F4801306BF2A
:1004200081F480110134013D4EE77FEA645C18BF1E
:100430007FEA655C29D094EA050F08BF90EA020FB5
:1004400005D054EA000C04BF1946104630BD91EAAD
:10045000030F1EBF0021002030BD5FEA545C05D1B0
:100460004000494128BF41F0004130BD14F58004EF
:100470003CBF01F5801130BD01F0004545F0FE4163
:1004800041F470014FF0000030BD7FEA645C1ABF98
:10049000194610467FEA655C1CBF0B46024650EACF
:1004A000013406BF52EA033591EA030F41F40021FB
:1004B00030BD00BF90F0000F04BF0021704730B581
:1004C0004FF4806404F132044FF000054FF0000156
:1004D00050E700BF90F0000F04BF0021704730B517
:1004E0004FF4806404F1320410F0004548BF4042EC
:1004F0004FF000013EE700BF42004FEAE2014FEA41
:1005000031014FEA02701FBF12F07F4393F07F4F1B
:1005100081F06051704732F07F4208BF704793F01E
:100520007F4F04BF41F40021704730B54FF4607431
:1005300001F0004521F000411CE700BF50EA010234
:1005400008BF704730B54FF000050AE050EA0102DD
:1005500008BF704730B511F0004502D5404261EB4D
:1005600041014FF4806404F132045FEA915C3FF48E
:10057000D8AE4FF003025FEADC0C18BF03325FEA2B
:10058000DC0C18BF033202EBDC02C2F1200300FADC
:1005900003FC20FA02F001FA03FE40EA0E0021FA01
:1005A00002F11444BDE600BF70B54FF0FF0C4CF4EF
:1005B000E06C1CEA11541DBF1CEA135594EA0C0FA1
:1005C00095EA0C0F00F0DEF82C4481EA030621EADC
:1005D0004C5123EA4C5350EA013518BF52EA033517
:1005E00041F4801143F4801338D0A0FB02CE4FF0C9
:1005F0000005E1FB02E506F00042E0FB03E54FF0F9
:100600000006E1FB03569CF0000F18BF4EF0010EF0
:10061000A4F1FF04B6F5007F64F5407404D25FEAEC
:100620004E0E6D4146EB060642EAC62141EA55519F
:100630004FEAC52040EA5E504FEACE2EB4F1FD0CE1
:1006400088BFBCF5E06F1ED8BEF1004F08BF5FEA5F
:10065000500E50F1000041EB045170BD06F0004611
:1006600046EA010140EA020081EA0301B4EB5C04BE
:10067000C2BFD4EB0C0541EA045170BD41F48011B6
:100680004FF0000E013C00F3AB8014F1360FDEBFDB
:10069000002001F0004170BDC4F10004203C35DAB7
:1006A0000C341BDC04F11404C4F1200500FA05F33A
:1006B00020FA04F001FA05F240EA020001F00042DB
:1006C00021F0004110EBD37021FA04F642EB060151
:1006D0005EEA430E08BF20EAD37070BDC4F10C047B
:1006E000C4F1200500FA04F320FA05F001FA04F23F
:1006F00040EA020001F0004110EBD37041F100012B
:100700005EEA430E08BF20EAD37070BDC4F1200535
:1007100000FA05F24EEA020E20FA04F301FA05F29D
:1007200043EA020321FA04F001F0004121FA04F245
:1007300020EA020000EBD3705EEA430E08BF20EA15
:10074000D37070BD94F0000F0FD101F0004640004F
:1007500041EB010111F4801F08BF013CF7D041EAD1
:10076000060195F0000F18BF704703F000465200D5
:1007700043EB030313F4801F08BF013DF7D043EAA6
:100780000603704794EA0C0F0CEA135518BF95EA5C
:100790000C0F0CD050EA410618BF52EA4306D1D1E3
:1007A00081EA030101F000414FF0000070BD50EA02
:1007B000410606BF1046194652EA430619D094EA8C
:1007C0000C0F02D150EA013613D195EA0C0F05D176
:1007D00052EA03361CBF104619460AD181EA0301CA
:1007E00001F0004141F0FE4141F470014FF0000082
:1007F00070BD41F0FE4141F4780170BD70B54FF01D
:10080000FF0C4CF4E06C1CEA11541DBF1CEA13559C
:1008100094EA0C0F95EA0C0F00F0A7F8A4EB05047E
:1008200081EA030E52EA03354FEA013100F0888075
:100830004FEA03334FF0805545EA131343EA12633E
:100840004FEA022245EA111545EA10654FEA0026F3
:100850000EF000419D4208BF964244F1FD0404F5AC
:10086000407402D25B084FEA3202B61A65EB030508
:100870005B084FEA32024FF480104FF4002CB6EBC5
:10088000020E75EB030E22BFB61A754640EA0C0045
:100890005B084FEA3202B6EB020E75EB030E22BF85
:1008A000B61A754640EA5C005B084FEA3202B6EBC6
:1008B000020E75EB030E22BFB61A754640EA9C0085
:1008C0005B084FEA3202B6EB020E75EB030E22BF55
:1008D000B61A754640EADC0055EA060E18D04FEA13
:1008E000051545EA16754FEA06164FEAC30343EAB3
:1008F00052734FEAC2025FEA1C1CC0D111F4801F80
:100900000BD141EA00014FF000004FF0004CB6E778
:1009100011F4801F04BF01430020B4F1FD0C88BF17
:10092000BCF5E06F3FF6AFAEB5EB030C04BFB6EB22
:10093000020C5FEA500C50F1000041EB045170BD15
:100940000EF0004E4EEA113114EB5C04C2BFD4EB42
:100950000C0541EA045170BD41F480114FF0000EC6
:10096000013C90E645EA060E8DE60CEA135594EA42
:100970000C0F08BF95EA0C0F3FF43BAF94EA0C0F45
:100980000AD150EA01347FF434AF95EA0C0F7FF4BA
:1009900025AF104619462CE795EA0C0F06D152EA0E
:1009A00003353FF4FDAE1046194622E750EA4106F2
:1009B00018BF52EA43067FF4C5AE50EA41047FF403
:1009C0000DAF52EA43057FF4EBAE12E74A0011D2B5
:1009D00012F5001211D20DD56FF47873B3EB625299
:1009E0000ED44FEAC12343F0004343EA505323FAA5
:1009F00002F070474FF00000704750EA013002D11A
:100A00004FF0FF3070474FF0000070474FEA41024F
:100A1000B2F1E04324BFB3F5001CDCF1FE5C0DD95C
:100A200001F0004C4FEAC0024CEA5070B2F1004FA6
:100A300040EB830008BF20F00100704711F0804FA9
:100A400021D113F13872BCBF01F00040704741F46E
:100A500080114FEA5252C2F11802C2F1200C10FA72
:100A60000CF320FA02F018BF40F001004FEAC12356
:100A70004FEAD32303FA0CFC40EA0C0023FA02F3FA
:100A80004FEA4303CCE77FEA625307D150EA0133D0
:100A90001EBF4FF0FE4040F44000704701F00040A0
:100AA00040F0FE4040F40000704700BF53B94AB91F
:100AB000002908BF00281CBF4FF0FF314FF0FF3066
:100AC00000F068B9ADF1080C6DE904CE00F006F84D
:100AD000DDF804E0DDE9022304B070472DE9F047BA
:100AE000089D0C46002B4ED194468C458646B2FAA2
:100AF00082F262D94AB1C2F12003914020FA03F395
:100B00000CFA02FC194300FA02FE4FEA1C47B1FB43
:100B1000F7F407FB14111FFA8CF64FEA1E4343EA61
:100B2000014304FB06F199420AD91CEB030304F1CB
:100B3000FF3080F01081994240F20D81023C634405
:100B4000591AB1FBF7F007FB101100FB06F61FFA6C
:100B50008EF343EA01439E420AD91CEB030300F1E2
:100B6000FF3180F0FA809E4240F2F7806344023801
:100B700000219B1B40EA04401DB1D3400022C5E97F
:100B80000032BDE8F0878B4205D90DB1C5E90001FF
:100B900000210846F5E7B3FA83F1002946D1A342C4
:100BA00002D39042C0F0EE80861A64EB030301206A
:100BB000002DE6D0C5E90063E3E7002A40F08F800E
:100BC000A1EB0C0401214FEA1C481FFA8CF7B4FB7F
:100BD000F8F608FB164407FB06F04FEA1E4343EA0B
:100BE0000443984208D91CEB030306F1FF3402D2F8
:100BF000984200F2CB8026461C1AB4FBF8F008FBA2
:100C0000104400FB07F71FFA8EF343EA04439F42A8
:100C100008D91CEB030300F1FF3402D29F4200F21B
:100C2000AE802046DB1B40EA0640A5E7C1F1200765
:100C30008B4022FA07FC4CEA030C24FA07F64FEA31
:100C40001C49B6FBF9F81FFA8CFE09FB186620FA5E
:100C500007F38C4000FA01FA08FB0EF01C43230C4A
:100C600043EA0643984202FA01F20AD91CEB030355
:100C700008F1FF3680F0818098427ED9A8F1020801
:100C800063441E1AB6FBF9F309FB136603FB0EFE61
:100C9000A4B244EA0644A64508D91CEB040403F1B7
:100CA000FF3066D2A64564D9023B644443EA08405B
:100CB000A0FB0283A4EB0E049C42C6461E4650D302
:100CC0004DD055B1BAEB0E0364EB060404FA07F7F6
:100CD000CB401F43CC40C5E90074002151E70CFA1A
:100CE00002FCC2F12003D9404FEA1C4820FA03F36A
:100CF00000FA02FEB1FBF8F008FB101194401C430F
:100D00001FFA8CF7230C43EA014300FB07F19942D9
:100D100008D91CEB030300F1FF362CD299422AD9E3
:100D2000023863445B1AB3FBF8F108FB1133A4B239
:100D300044EA034401FB07F3A34208D91CEB040473
:100D400001F1FF3613D2A34211D902396444E41AE7
:100D500041EA00413BE70446F2E6084608E7C2459F
:100D6000AFD2B8EB020E63EB0C060138A9E73146AF
:100D7000EDE703469AE73046D4E7B04681E763449F
:100D800002384FE706462346084611E7023E634411
:100D900032E700BF704700BF034613F8012B002A5B
:100DA000FBD1181A013870474FF0FF3C06E000BF36
:100DB0004FF0010C02E000BF4FF0010C4DF804CDE4
:100DC0004FEA410C7FEA6C5C4FEA430C18BF7FEAA4
:100DD0006C5C1BD001B050EA410C0CBF52EA430CD2
:100DE00091EA030F02BF90EA020F0020704710F152
:100DF000000F91EA030F58BF994208BF90422CBFE1
:100E0000D8176FEAE37040F0010070474FEA410CD9
:100E10007FEA6C5C02D150EA013C07D14FEA430CF7
:100E20007FEA6C5CD6D152EA033CD3D05DF8040B68
:100E3000704700BF8446104662468C46194663469A
:100E400000E000BF01B5FFF7B7FF002848BF10F171
:100E5000000F01BD4DF808EDFFF7F4FF0CBF0120B6
:100E600000205DF808FB00BF4DF808EDFFF7EAFF32
:100E700034BF012000205DF808FB00BF4DF808EDED
:100E8000FFF7E0FF94BF012000205DF808FB00BFE2
:100E90004DF808EDFFF7CEFF94BF012000205DF86C
:100EA00008FB00BF4DF808EDFFF7C4FF34BF012079
:100EB00000205DF808FB00BF4FEA410C7FEA6C5C44
:100EC00002D150EA013C0AD14FEA430C7FEA6C5C44
:100ED00002D152EA033C02D14FF0000070474FF0BC
:100EE000010070474FEA410212F5001215D211D5E8
:100EF0006FF47873B3EB625212D94FEAC12343F017
:100F0000004343EA505311F0004F23FA02F018BF98
:100F1000404270474FF00000704750EA013005D161
:100F200011F0004008BF6FF0004070474FF0000024
:100F3000704700BF10B500F0ADFC064C204602F033
:100F400099F8204601F062FF4FF0FF31204601F092
:100F5000B3FD10BD9407002008B5024801F06EFEF5
:100F600080B208BD9407002008B5FFF7F5FFFFF732
:100F7000B1FA0BA3D3E90023FFF740FC0AA3D3E99E
:100F80000023FFF711FB0AA3D3E90023FFF736FC88
:100F900009A3D3E90023FFF707FB08BDAFF30080E7
:100FA0000000000000FEAF406666666666660A40A6
:100FB000355EBA490C0209403333333333332940A9
:100FC0002DE9F04F83B005468A46904699469DF834
:100FD000306010461946FFF7F9FCC0B21A4FA7FB64
:100FE00000235B094FF0640B0BFB1300C4B200221B
:100FF000164B40464946FFF7D7FAFFF7E7FC80B2A9
:10100000A7FB00377F090BFB1700C7B2009602232E
:1010100022465146284600F0BDFBA81933460C4A2B
:101020005146C0B200F0FEFB06F0FE0303EB560390
:10103000E818009602233A465146C0B200F0AAFBD7
:1010400003B0BDE8F08F00BF1F85EB510000594091
:1010500080C5000800B583B0FFF786FF02460B4647
:101060001021009102215820FFF7AAFF4FF4FA70D7
:1010700006F064F9F0E7000000B583B00A4601AB62
:101080000146054802F0D0F918B9012003B05DF817
:1010900004FB0020FAE700BFC407002008B50021C8
:1010A000034802F0EBFA00B908BD0120FCE700BFDD
:1010B000C407002008B502460B460021034802F091
:1010C00028FA08B9012008BD0020FCE7C407002069
:1010D00008B50421074804F035FC0421064804F053
:1010E00031FC0421054804F02DFC0421044804F0DF
:1010F00029FC08BD780A0020300A0020E8090020F9
:10110000A009002038B50446094D01224FF40051D2
:10111000284602F04EFC204606F010F900224FF45B
:101120000051284602F045FC204606F007F938BD7C
:101130000010014008B500224FF48051014802F030
:1011400038FC08BD000C014008B501224FF4805165
:10115000014802F02EFC08BD000C014000B583B030
:101160007F238DF804308DF80500FFF7E3FF0A2395
:10117000022201A9034803F0AAFCFFF7E5FF03B030
:101180005DF804FB6C08002070B582B014461D4663
:101190008DF80710FFF7E2FFFFF7CCFF094E4FF481
:1011A0007A7301220DF10701304603F090FC4FF4F1
:1011B0007A732A462146304603F089FCFFF7C4FFC4
:1011C00002B070BD6C08002000B583B08DF804102B
:1011D0008DF80520FFF7C2FFFFF7ACFF4FF47A73DD
:1011E000022201A9034803F072FCFFF7ADFF03B030
:1011F0005DF804FB6C08002038B505460C460C224F
:1012000003213020FFF7E0FF2A4604213020FFF7BA
:10121000DBFF224606213020FFF7D6FF8122052181
:101220003020FFF7D1FF38BD10B582B061F07F01EB
:101230008DF80610FFF792FFFFF77CFF0B4C4FF481
:101240007A7301220DF10601204603F040FC4FF4B1
:101250007A7301220DF10701204603F036FEFFF7F5
:1012600073FF9DF8070002B010BD00BF6C0800209E
:1012700010B504468C2203213020FFF7A5FF22463B
:1012800004213020FFF7A0FF812205213020FFF745
:101290009BFF012006F052F83B210020FFF7C4FF1E
:1012A00010BD38B5044633210020FFF7BDFF0546C9
:1012B00034210020FFF7B8FF40EA052020803521C7
:1012C0000020FFF7B1FF054636210020FFF7ACFFF5
:1012D00040EA0520608037210020FFF7A5FF054682
:1012E00038210020FFF7A0FF40EA0520A08038BD8C
:1012F00010B588B000240394049405940194ADF8CB
:10130000084012E006A8FFF7CCFFBDF91820039BA8
:1013100013440393BDF91A20049B13440493BDF9AD
:101320001C20059B134405930134632CEADD039BC9
:101330001E4880FB0312D917C1EB62110391049B75
:1013400080FB0324DA17C2EB64120492059B80FB36
:101350000340DB17C3EB60130593494200291FDBF1
:10136000881089128DF804108DF805005242002A69
:1013700018DB911092128DF806208DF807105B4251
:10138000002B11DB9A109B128DF808308DF8092084
:10139000062301AA03212020FFF7F6FE08B010BDA6
:1013A0000331DDE70332E4E70333EBE71F85EB515D
:1013B00008B5802206210020FFF706FF642005F013
:1013C000BDFF012206210020FFF7FEFE00220721BB
:1013D0001046FFF7F9FE042200212020FFF7F4FE5B
:1013E000002210212020FFF7EFFE0A2211212020E9
:1013F000FFF7EAFEFFF77CFF1F2201212020FFF705
:10140000E3FE002202212020FFF7DEFE1D22142130
:101410002020FFF7D9FE002215212020FFF7D4FE5F
:1014200008BD38B504462D210020FFF7FDFE054616
:101430002E210020FFF7F8FE40EA052020802F2112
:101440000020FFF7F1FE054630210020FFF7ECFEFB
:1014500040EA0520608031210020FFF7E5FE0546C7
:1014600032210020FFF7E0FE40EA0520A08038BDD1
:1014700030B585B005460C4602A8FFF7D2FF684696
:10148000FFF70FFF0A2005F059FFBDF90800FFF72D
:1014900021F80022224BFFF787F8FFF7B7FA286000
:1014A000BDF90A00FFF716F800221D4BFFF77CF884
:1014B000FFF7ACFA6860BDF90C00FFF70BF80022EB
:1014C000174BFFF771F8FFF7A1FAA860BDF900000C
:1014D000FFF700F810A3D3E90023FFF78FF9FFF718
:1014E00095FA2060BDF90200FEF7F4FF0AA3D3E9E4
:1014F0000023FFF783F9FFF789FA6060BDF9040064
:10150000FEF7E8FF04A3D3E90023FFF777F9FFF71D
:101510007DFAA06005B030BD6666666666663040DE
:101520000000303F08B503210020FFF77DFE40F0AA
:101530002202D2B203210020FFF746FE642005F00C
:10154000FDFE01213020FFF76FFE40F00702D2B20E
:1015500001213020FFF738FE01213220FFF74CFE39
:10156000642005F0EBFE08213120FFF745FE08BDA1
:1015700008B50120FFF77CFE08BD38B504461220EF
:10158000FFF776FE05461120FFF772FE40EA0520C0
:1015900020801420FFF76CFE05461320FFF768FE3D
:1015A00040EA052060801620FFF762FE0546152000
:1015B000FFF75EFE40EA0520A08038BD0000000075
:1015C00010B582B004466846FFF7D7FFBDF90000AA
:1015D000FEF780FF10A3D3E90023FEF7E5FFFFF736
:1015E00015FA2060BDF90200FEF774FF0AA3D3E9E3
:1015F0000023FEF7D9FFFFF709FA6060BDF9040088
:10160000FEF768FF04A3D3E90023FEF7CDFFFFF741
:10161000FDF9A06002B010BD333333333333C33F21
:1016200010B5114C0021204604F012F90C2120467F
:1016300004F00EF90421204604F0FAF908212046AE
:1016400004F0F6F9094C0021204604F001F90421C8
:10165000204604F0FDF80821204604F0F9F80C219A
:10166000204604F0F5F810BDC00A00201009002043
:101670000246012002E002FB00F019464B1EDBB2DD
:101680000029F8D17047000000B587B08DF8170029
:101690004FF480730293012301930DF1170200921E
:1016A00000227821024802F00DFC07B05DF804FB2F
:1016B0001808002000B587B08DF817004FF480732C
:1016C0000293012301930DF1170200924022782129
:1016D000024802F0F7FB07B05DF804FB1808002091
:1016E00010B50446A1F15000C0B2FFF7CDFF2009AC
:1016F00040F01000FFF7C8FF04F00F00FFF7C4FF31
:1017000010BD0000F8B507460E46203AD5B210F0DD
:10171000800F07D1102B09D031463846FFF7E0FF84
:10172000002430E00136F6B20027F3E731463846B0
:10173000FFF7D6FF002407E004EB0513134AD05C43
:10174000FFF7B8FF0134E4B2072CF5D9711CC9B218
:101750003846FFF7C5FF002408E004EB0513083303
:101760000A4AD05CFFF7A6FF0134E4B2072CF4D993
:101770000BE005EB4502064B03EB4203185DFFF758
:1017800099FF0134E4B2052CF3D9F8BD84C50008F3
:1017900074CB00082DE9F0478246894690461D46E5
:1017A0009DF8206000273C4619E0700804FB00F01B
:1017B000C0B25044334620224946C0B2FFF7A2FFD0
:1017C0000BE0700804FB00F0C0B2303250443346E6
:1017D000D2B24946C0B2FFF795FF0134E4B2AC4241
:1017E0001CD2291BC9B20139C9B20A20FFF740FF38
:1017F000B8FBF0F00A4BA3FB003C4FEADC0C0CEB0F
:101800008C0CA0EB4C0C5FFA8CF2002FD9D16B1E24
:101810009C42D6DA002AC8D00127D2E7BDE8F0877B
:10182000CDCCCCCC2DE9F04104460E461746984667
:10183000002501E00135EDB27A5D62B143463146E3
:101840002046FFF75FFF0834E4B2782CF2D9023665
:10185000F6B20024EEE7BDE8F08138B5002509E0D6
:101860000020FFF727FF0134E4B214F0800FF7D017
:101870000135EDB2032D0CD8A5F15000C0B2FFF731
:1018800003FF0020FFF700FF1020FFF7FDFE0024FC
:10189000EBE738BD10B5002405E0074B185DFFF7F6
:1018A000F3FE0134E4B2152CF7D9FFF7D6FF00217F
:1018B0000846FFF715FF10BD00000020F0B589B005
:1018C0000446B1F90200B1F90450B2F90060B2F96E
:1018D0000270B2F90420B3F900C0B3F902E0B3F921
:1018E00004300793CDF818E0CDF814C004920397A4
:1018F000029601950090B1F90030084A402108484D
:1019000006F092F9431E3E2B01D909B0F0BD6423C5
:1019100082B20349204604F025FAF6E79CCD000880
:10192000540700202DE9F04F95B013900C684D68D6
:101930008E681768D2F80480D2F80890D3F800A017
:10194000D3F804B09868FEF7D7FDCDE910015846EA
:10195000FEF7D2FDCDE90E015046FEF7CDFDCDE9F3
:101960000C014846FEF7C8FDCDE90A014046FEF7E6
:10197000C3FDCDE908013846FEF7BEFDCDE90601FD
:101980003046FEF7B9FDCDE904012846FEF7B4FD67
:10199000CDE902012046FEF7AFFDCDE90001094A7D
:1019A0006021094806F040F9431E5E2B02D915B0AC
:1019B000BDE8F08F642382B20349139804F0D2F992
:1019C000F5E700BFC8CD0008F406002000B585B0DB
:1019D00000230193029303931148124A026083602B
:1019E0000122027303754FF46021C16143600261FB
:1019F00001F0ACFA68B90E23019301230293072387
:101A0000039301A9064801F01DF928B905B05DF856
:101A100004FB00F087FAEEE700F084FAF6E700BF77
:101A2000940700200024014000B587B000230293F2
:101A30000393049305930268114B9A4202D007B0B6
:101A40005DF804FB03F56C439A6942F400729A61F5
:101A50009A6902F400720092009A9A6942F01002A8
:101A60009A619B6903F010030193019B1023029379
:101A70000323039302A9034801F078FEDFE700BFC8
:101A8000002401400010014010B51A481A4B0360B1
:101A90000C234360002383604FF08072C2604FF4D8
:101AA000803202614FF400124261037643768376FE
:101AB000C3760377437701F05DFBA0B90D4C204658
:101AC00001F084FC0D4900234B610B604B608B607F
:101AD000CB600122CA618B610B610A62204601F072
:101AE000EFFB18B910BD00F01DFAE7E700F01AFA95
:101AF000F8E700BFC407002000640040EC070020A6
:101B000010B586B0002302930393049305930268F3
:101B10001A4B9A4201D006B010BD03F5D633DA69EC
:101B200042F00072DA61DA6902F000720092009A03
:101B30009A6942F008029A619B6903F008030193D5
:101B4000019B4FF4807302930D4C02A9204601F0D3
:101B50000DFE4FF4007302930223039303230593B6
:101B600002A9204601F002FE064A536823F4C0434E
:101B700043F0E06343F480435360CCE700640040EB
:101B8000000C01400000014008B5FFF763FA08BDF2
:101B900010B592B0FFF70CFCFFF7C4FCFFF7E8FCB0
:101BA000024610230093032300210846FFF7F2FDAD
:101BB0000EA8FFF776FB10A8FFF733FC0CA8FFF781
:101BC000DCFC0F4C0CAB0EAA10A92046FFF776FEEA
:101BD000642005F0B3FB06A909A8FFF749FC03A898
:101BE000FFF7EEFC03AB06AA09A92046FFF79AFE11
:101BF0006420FFF787FA642005F0A0FBCEE700BF62
:101C0000080B002070B594B03D4E0EAC35460FCD9C
:101C10000FC495E8030084E803000CAB06F1180C30
:101C20009CE8030083E803000025059506950795C9
:101C3000089509950A950B950395049555E00CA90F
:101C40000EA8FFF719FA024608230093012300218A
:101C50000846FFF79FFD0135642005F06FFB4AE061
:101C600003A905A8FFF726FA0246082400940123D9
:101C700000211420FFF78EFD00940423059A012112
:101C80000020FFF787FD00940223099A0121142008
:101C9000FFF780FD009403239DF80C2001212820EC
:101CA000FFF778FD009403239DF80D2001213C20CF
:101CB000FFF770FD009403239DF80E2001215020B2
:101CC000FFF768FD009403239DF80F200121642095
:101CD000FFF760FD1023009303232A460221002012
:101CE000FFF758FDC82005F029FB0421054801F045
:101CF00059FE0028A3D0FFF7D1F90028B0D1E9E7B9
:101D000060C500080014014008B5FFF7C3FDFFF7E8
:101D100011F9FFF785FCFFF7DBF908BD30B583B09B
:101D2000FFF7F2FF0E4A00210E4804F0C3F80E4BF5
:101D30001860002401941825009523464FF4007282
:101D40000A490B4805F05AF90194009523464FF4CF
:101D500000720849084805F051F903B030BD00BFD2
:101D600024CE0008891B0008140800200CCE0008AF
:101D7000911B000810CE0008051C00082DE9F04159
:101D800088B000240494059406940794334B9A6910
:101D900042F010029A619A6902F010020092009AD1
:101DA0009A6942F020029A619A6902F02002019237
:101DB000019A9A6942F004029A619A6902F0040257
:101DC0000292029A9A6942F008029A619B6903F0B2
:101DD00008030393039B224E224642F2220130461F
:101DE00001F0E7FD01220C21304601F0E2FD1D4F1C
:101DF00001224FF48051384601F0DBFD42F222030C
:101E000004930125059506944FF00208CDF81C8037
:101E100004A9304601F0AAFC0C2304931123059376
:101E20000695CDF81C8004A9304601F09FFC4FF4C4
:101E300080530493059506940323079304A9384619
:101E400001F094FC042304930594069504A9064824
:101E500001F08CFC08B0BDE8F08100BF001002402A
:101E600000100140000C01400014014008B50B486F
:101E70000B4B03600B4B436000238360C3604FF444
:101E80008042026143618361C361036201F03CFFF0
:101E900000B908BD00F046F8FBE700BF18080020B5
:101EA00000580040A086010010B586B000230293C0
:101EB0000393049305930268114B9A4201D006B034
:101EC00010BD104CA36943F00803A361A36903F09C
:101ED00008030093009B4FF4406302931223039383
:101EE0000323059302A9084801F040FCE36943F489
:101EF0008003E361E36903F480030193019BDEE760
:101F00000058004000100240000C014008B5026873
:101F1000034B9A4200D008BD00F0BCFDFBE700BFB8
:101F20000010004072B6FEE700B597B028220021ED
:101F30000CA805F0F0FE00230793089309930A9379
:101F40000B93019302930393049305930693012249
:101F50000C924FF480330D9310920222139214933B
:101F60004FF4E01315930CA802F074F8C8B90F23CE
:101F7000079302210891002309934FF480620A928B
:101F80000B9307A802F098FA68B9022301934FF463
:101F90000043039301A802F089FB30B917B05DF844
:101FA00004FBFFF7BFFFFFF7BDFFFFF7BBFF08B55F
:101FB00000F05EFDFFF7B8FFFFF7E0FEFFF756FF0A
:101FC00000F0BAFB00F048FC00F09AF900F0D4FCF5
:101FD00000F060F900F0CAF900F000FAFFF7F6FC33
:101FE00000F034FA00F00AF8FFF74EFD03F01AFF94
:101FF000FFF794FE03F038FFFEE7000008B50D4838
:102000000D4B03604FF48273436000238360C36011
:10201000036143614FF400728261C36103624362F2
:1020200083620A23C36202F0F7FC00B908BDFFF720
:1020300079FFFBE76C0800200038004010B586B03F
:10204000002302930393049305930268174B9A426B
:1020500001D006B010BD03F5EC33DA6942F48042DA
:10206000DA61DA6902F480420092009A9A6942F0D9
:1020700008029A619B6903F008030193019B4FF4E6
:10208000204302930223039303230593084C02A9E0
:10209000204601F06BFB4FF480430293002303932F
:1020A000049302A9204601F061FBD2E7003800400A
:1020B000000C014000B583B0114B9A6942F0010257
:1020C0009A619A6902F001020092009ADA6942F07C
:1020D0008052DA61DB6903F080530193019B002297
:1020E0000F216FF0010001F023FB064A536823F033
:1020F000E06343F00073536003B05DF804FB00BF7E
:10210000001002400000014030B589B00446214B68
:10211000DA6942F01002DA61DB6903F0100301931F
:10212000019B02A903A802F0A3FA069BCBB902F017
:102130007FFA0346184AA2FB03239B0C013B174876
:10214000174A026040F2E732C26043600023036135
:102150008360836103F088F9054630B1284609B0F1
:1021600030BD02F065FA4300E4E70C4803F032F8B2
:1021700005460028F2D1362001F0EAFA0F2C01D9E9
:102180000125EBE700222146362001F0D1FA054B6C
:102190001C60E3E70010024083DE1B43C4080020FC
:1021A0000010004020000020FEE7FEE7FEE7FEE70B
:1021B000FEE7704708B5024803F04DF808BD00BFC0
:1021C000C408002008B5024803F045F808BD00BF68
:1021D000580900200120704708B505F017FE1623A6
:1021E00003604FF0FF3008BD08B54FF0FF31FFF737
:1021F000F3FFFEE770B50C461646002506E0AFF388
:102200000080214601F8010B01350C46B542F6DB92
:10221000304670BD70B50C461646002504E014F833
:10222000010BAFF300800135B542F8DB304670BDDD
:102230004FF0FF3070474FF400534B600020704761
:10224000012070470020704710B503460C4A0D4925
:102250000D48006840B10C4800680344521A93428C
:1022600006D8094A136010BD0748084C0460F2E71D
:1022700005F0CCFD0C2303604FF0FF30F3E700BF07
:1022800000C00020000400000C090020289300205A
:102290007047000000B58DB02422002103A805F08E
:1022A0003AFD00230193029314484FF080420260EC
:1022B000436083604FF6FF72C260036180238361D5
:1022C00003230393012205920F23079309920B9393
:1022D00003A903F021F950B900230193029301A946
:1022E000064803F019FC28B90DB05DF804FBFFF7B0
:1022F00019FEF1E7FFF716FEF6E700BF780A0020A7
:1023000000B58DB02422002103A805F004FD0023B0
:10231000019302931348144A0260436083604FF6AE
:10232000FF72C26003618023836103230393012250
:1023300005920F23079309920B9303A903F0ECF87E
:1023400050B900230193029301A9064803F0E4FB6E
:1023500028B90DB05DF804FBFFF7E4FDF1E7FFF7E6
:10236000E1FDF6E7300A00200004004000B58DB022
:102370002422002103A805F0CEFC00230193029340
:102380001448154A0260436083604FF6FF72C260D2
:1023900003618023836103230393022304930122B7
:1023A00005920F23079309920B9303A903F0B4F846
:1023B00050B900230193029301A9064803F0ACFB36
:1023C00028B90DB05DF804FBFFF7ACFDF1E7FFF7AE
:1023D000A9FDF6E7E80900200008004000B58DB02F
:1023E0002422002103A805F096FC00230193029308
:1023F0001448154A0260436083604FF6FF72C26062
:102400000361802383610323039302230493012246
:1024100005920F23079309920B9303A903F07CF80D
:1024200050B900230193029301A9064803F074FBFD
:1024300028B90DB05DF804FBFFF774FDF1E7FFF775
:1024400071FDF6E7A0090020000C004000B583B044
:102450000023009301931048104A026041F61F4286
:102460004260836040F2E733C3608023836102F0FF
:10247000FBFF50B90023009301936946064803F01F
:102480004BFB28B903B05DF804FBFFF74BFDF1E708
:10249000FFF748FDF6E700BF580900200014004090
:1024A00000B585B003681A4A934208D0194A93428E
:1024B00010D0194A934220D005B05DF804FB174BA9
:1024C0009A6942F400629A619B6903F40063019384
:1024D000019BF1E7114BDA6942F02002DA61DB6916
:1024E00003F020030293029B00220521372001F014
:1024F0001FF9372001F02CF9DEE7084B9A6942F406
:1025000000529A619B6903F400530393039BD3E742
:10251000002C014000140040003401400010024033
:1025200000B58FB000230A930B930C930D930368AF
:10253000B3F1804F0BD0484A93423FD0474A934271
:1025400056D0474A93426DD00FB05DF804FB03F5B7
:102550000433DA6942F00102DA61DA6902F0010259
:102560000192019A9A6942F004029A619A6902F012
:1025700004020292029A9A6942F008029A619B69E7
:1025800003F008030393039B4FF400430A930AA943
:10259000344801F0EBF808230A9300230B930C93C3
:1025A0000AA9314801F0E2F8304A536823F4407335
:1025B00043F0E06343F480735360C5E72C4BDA6962
:1025C00042F00202DA61DA6902F002020492049A2D
:1025D0009A6942F004029A619B6903F0040305932F
:1025E000059BC0230A930AA91E4801F0BFF8ABE778
:1025F0001F4BDA6942F00402DA61DA6902F0040280
:102600000692069A9A6942F008029A619B6903F061
:1026100008030793079BC0230A930AA9124801F0F5
:10262000A5F891E7124BDA6942F00802DA61DA693B
:1026300002F008020892089A9A6942F004029A612C
:102640009B6903F004030993099B03230A930AA9D6
:10265000044801F08BF877E70004004000080040D0
:10266000000C004000080140000C01400000014047
:102670000010024010B588B0002304930593069320
:1026800007930368254A934204D0254A934230D0E9
:1026900008B010BD234B9A6942F008029A619A690A
:1026A00002F008020192019A9A6942F004029A61CA
:1026B0009B6903F004030293029B03230493022407
:1026C0000594079404A9184801F050F84FF41063DA
:1026D00004930594079404A9144801F047F8144A98
:1026E000536823F0C00343F0E06343F040035360BA
:1026F000CEE70C4B9A6942F010029A619B6903F095
:1027000010030393039B4FF4707304930223059308
:10271000079304A9074801F029F8B9E7002C014004
:102720000034014000100240000C0140000801404C
:10273000000001400010014010B596B00024129432
:102740001394149415941094119409940A940B946E
:102750000C940D940E940F942022214601A805F0AC
:10276000DAFA3B483B4B03604460846040F60F63F9
:10277000C360046144618023836102F075FE002818
:102780004BD14FF48053129312A9314802F0D2FF7B
:10279000002845D12E4802F093FE002843D10023A3
:1027A0001093119310A92A4803F0B6F900283DD1DF
:1027B0006023099300220A920B920C920D920E92C2
:1027C0000F9209A9224802F03BFF002831D10422D0
:1027D00009A91F4802F034FF70BB082209A91C4850
:1027E00002F02EFF58BB0C2209A9194802F028FF5D
:1027F00040BB0023019302930393049305934FF48A
:1028000000520692089301A9114803F0C3F9E0B9F8
:102810000F48FFF72FFF16B010BDFFF783FBB0E79F
:10282000FFF780FBB6E7FFF77DFBB8E7FFF77AFB22
:10283000BEE7FFF777FBCAE7FFF774FBCDE7FFF7CB
:1028400071FBD0E7FFF76EFBD3E7FFF76BFBDFE72A
:10285000C00A0020002C014010B596B0002412944C
:102860001394149415941094119409940A940B944D
:102870000C940D940E940F942022214601A805F08B
:102880004AFA3B483B4B03604460846040F60F6368
:10289000C360046144618023836102F0E5FD002888
:1028A0004BD14FF48053129312A9314802F042FFEA
:1028B000002845D12E4802F003FE002843D1002312
:1028C0001093119310A92A4803F026F900283DD14E
:1028D0006023099300220A920B920C920D920E92A1
:1028E0000F9209A9224802F0ABFE002831D1042240
:1028F00009A91F4802F0A4FE70BB082209A91C48C0
:1029000002F09EFE58BB0C2209A9194802F098FE5D
:1029100040BB0023019302930393049305934FF468
:1029200000520692089301A9114803F033F9E0B967
:102930000F48FFF79FFE16B010BDFFF7F3FAB0E7A0
:10294000FFF7F0FAB6E7FFF7EDFAB8E7FFF7EAFAB4
:10295000BEE7FFF7E7FACAE7FFF7E4FACDE7FFF7CC
:10296000E1FAD0E7FFF7DEFAD3E7FFF7DBFADFE7BC
:10297000100900200034014008B50A480A4B0360E2
:102980004FF4E133436000238360C36003610C2292
:1029900042618361C36103F0B5F900B908BDFFF777
:1029A000C1FAFBE7080B00200038014010B586B0E3
:1029B000002302930393049305930268174B9A42F2
:1029C00001D006B010BD03F558439A6942F4804225
:1029D0009A619A6902F480420092009A9A6942F0E0
:1029E00004029A619B6903F004030193019B4FF475
:1029F000007302930223039303230593084C02A957
:102A0000204600F0B3FE4FF480630293002303934B
:102A1000049302A9204600F0A9FED2E70038014045
:102A200000080140FFF734FC0B480C490C4A002316
:102A300002E0D458C4500433C4188C42F9D3094A74
:102A4000094C002301E013600432A242FBD305F0DD
:102A5000E3F9FFF7ACFA704700000020D806002029
:102A60003CD20008D806002024930020FEE7000096
:102A700008B5074A136843F010031360032000F001
:102A800045FE0F20FFF740FBFFF714FB002008BDB9
:102A900000200240034A1168034B1B780B4413606B
:102AA000704700BF500B00201C000020014B18682D
:102AB000704700BF500B0020F0B583B005460C46B0
:102AC00000230193FFF7F2FF2B689A6812F4807FCE
:102AD00023D107465A6812F4807F03D1DB6A13F4CE
:102AE000700F29D0504B1E68022001F06BFEB6FB20
:102AF000F0F62B6819694D4A114236D1D96802F1B6
:102B00005C42114231D11969494A114240D1DA6817
:102B1000484B1A423ED0292341E0AB6A43F02003E0
:102B2000AB62002385F82430012003B0F0BD2B6890
:102B30001B6813F0020F0FD02B681B6813F0020FF5
:102B40004FD1B4F1FF3FF7D0002CF0D0FFF7AEFF2C
:102B5000C31BA342F0D9EAE7AB6A43F00403AB62BC
:102B6000002385F824300320DFE71969304A114239
:102B700004D1D96802F16E4211420DD019692E4A72
:102B80000A405AB9DA682C4B13405BB1FC2306E0CB
:102B9000292304E0142302E0542300E0FC2303FB78
:102BA00006F607E05423FAE7019BB34210D3019BDA
:102BB00001330193019BB34213D2B4F1FF3FF6D02E
:102BC000002CF1D0FFF772FFC01BA042EFD9EBE75A
:102BD000AB6A43F00403AB62002385F82430032082
:102BE000A3E72B686FF012021A60AB6A43F400731C
:102BF000AB622B689B6803F46023B3F5602F01D0B0
:102C0000002092E7287B60B9AB6A23F48073AB6243
:102C1000AB6A13F4805F88D1AB6A43F00103AB6207
:102C200083E7002081E700BF180000202449922498
:102C30009224491292244900499224000368D86CD6
:102C40007047000030B482B00022019290F8242036
:102C5000012A00F08F800346012280F824204A6870
:102C6000062A2DD80468606B02EB8202053A4FF009
:102C70001F0C0CFA02FC20EA0C000D6805FA02F2A7
:102C8000024362630A68092A38D91C68E06802EBCB
:102C900042021E3A4FF0070C0CFA02FC20EA0C002C
:102CA0008D6805FA02F20243E2600A68103A012ACE
:102CB00034D90020002283F8242002B030BC7047B1
:102CC0000C2A0DD80568286B02EB8202233A1F24D8
:102CD000944020EA04000C68944020432863D1E724
:102CE0000568E86A02EB8202413A1F24944020EA18
:102CF00004000C6894402043E862C3E71C68206924
:102D000002EB42024FF0070C0CFA02FC20EA0C0026
:102D10008D6805FA02F202432261C6E71A68164876
:102D2000824205D09A6A42F020029A620120C1E7ED
:102D3000906810F4000F1BD1906840F40000906080
:102D40000A68102A01D00020B4E70C4A12680C4926
:102D5000A1FB0212920C02EB82025200019202E0ED
:102D6000019A013A0192019A002AF9D10020A1E7C3
:102D700000209FE70220A0E7002401401800002067
:102D800083DE1B4330B583B00023019303689A6848
:102D900012F0010F33D104469A6842F001029A60A2
:102DA000184B1B68184AA2FB03239B0C019302E0FB
:102DB000019B013B0193019B002BF9D1FFF776FEAC
:102DC000054623689B6813F0010F16D1FFF76EFECE
:102DD000431B022BF5D923689B6813F0010FF0D138
:102DE000A36A43F01003A362E36A43F00103E362C2
:102DF000002384F82430012002E0002000E00020BD
:102E000003B030BD1800002083DE1B4390F824304F
:102E1000012B68D010B50446012380F82430FFF759
:102E2000B1FF00285BD1A36A23F4407323F00103B0
:102E300043F48073A36223682C4A934227D0A26A8A
:102E400022F48012A2625A6812F4806F05D0A26A3E
:102E500022F4405242F48052A262A26A12F4805FCD
:102E60002BD0E26A22F00602E262002284F82420DB
:102E70006FF002021A6023689A6802F46022B2F5C9
:102E8000602F1DD09A6842F480129A602AE0A2F561
:102E90008062526812F4702FD1D0A26A42F480127C
:102EA000A262134A526812F4806FD6D0A26A22F44A
:102EB000405242F48052A262CFE70022E262D4E79D
:102EC0000A4A934204D09A6842F4A0029A6009E048
:102ED000A2F58062526812F4702FD3D1F3E7002379
:102EE00084F8243010BD0220704700BF0028014044
:102EF0000024014038B503689A6812F0010F01D12F
:102F0000002038BD04469A6822F001029A60FFF75B
:102F1000CDFD054623689B6813F0010F13D0FFF722
:102F2000C5FD431B022BF5D923689B6813F0010FE5
:102F3000F0D0A36A43F01003A362E36A43F00103F5
:102F4000E3620120DDE70020DBE70000002800F05D
:102F5000888070B50446836A002B52D02046FFF764
:102F6000C9FFA36A13F0100375D1002873D1A26AB8
:102F700022F4885222F0020242F00202A262626847
:102F8000266839498E4242D0E1690A43217B42EAF0
:102F90004102A568B5F5807F02D0012D3ED01D46C7
:102FA00094F814C0BCF1010F3BD0716821F4694161
:102FB000294371602568AE682C4931401143A960EE
:102FC000A168B1F5807F01D0012902D12369013BBD
:102FD0001B052568E96A21F470010B43EB62236845
:102FE0009968234B0B409A422CD0A36A23F012031A
:102FF00043F01003A362E36A43F00103E36201209C
:103000002EE0C36280F82430FEF70EFDA6E7E169EA
:10301000B1F5402FB9D14FF40021B6E74FF48075D8
:10302000BEE731B9A169013945EA413141F4006592
:10303000BBE7A16A41F02001A162E16A41F0010110
:10304000E162B2E70023E362A36A23F0030343F0E3
:103050000103A36204E0A36A43F01003A36201200A
:1030600070BD0120704700BF003C0140FDF7E1FF4B
:10307000FE0E1FFF70B582B00023019390F824303C
:10308000012B72D00446012380F82430FFF732FF71
:103090002046FFF777FE054628B1002384F8243048
:1030A000284602B070BDA36A23F4885323F00203BC
:1030B00043F00203A3622E4B1E68022001F082FB44
:1030C000B6FBF0F67600019602E0019B013B01930E
:1030D000019B002BF9D12268936843F008039360A9
:1030E000FFF7E4FC064623689A6812F0080F14D034
:1030F000FFF7DCFC801B0A28F5D923689B6813F0D6
:10310000080FF0D0A36A23F0120343F01003A36268
:10311000002384F824300125C2E79A6842F00402B3
:103120009A60FFF7C3FC064623689B6813F0040F00
:1031300014D0FFF7BBFC801B0A28F5D923689B68D5
:1031400013F0040FF0D0A36A23F0120343F010032E
:10315000A362002384F824300125A1E7A36A23F0A9
:10316000030343F00103A36297E7022598E700BF3A
:1031700018000020002800F0A18038B5044690F81F
:103180002030D3B12268136843F001031360FFF7C6
:103190008DFC054623685A6812F0010F10D1FFF725
:1031A00085FC401B0A28F5D9636A43F40033636247
:1031B000052384F82030012038BDFEF7A1FCE1E7AB
:1031C0001A6822F002021A60FFF770FC05462368B5
:1031D0005A6812F0020F0DD0FFF768FC401B0A2856
:1031E000F5D9636A43F400336362052384F8203021
:1031F0000120E1E7227E012A3DD01A6822F08002F8
:103200001A60637E012B3BD02268136823F04003D1
:103210001360A37E012B39D02268136823F02003AA
:103220001360E37E012B37D02268136843F010034C
:103230001360237F012B35D02268136823F0080325
:103240001360637F012B33D02268136823F00403DB
:103250001360A368E268134322691343626913434E
:103260006268013A21681343CB6100206062012348
:1032700084F82030A0E71A6842F080021A60C0E7A4
:103280002268136843F040031360C2E722681368A2
:1032900043F020031360C4E72268136823F010038F
:1032A0001360C6E72268136843F008031360C8E799
:1032B0002268136843F004031360CAE701207047D3
:1032C000026890F82030013BDBB2012B05D9436A3C
:1032D00043F4802343620120704710B5D2F80032D6
:1032E00043F00103C2F800324B6903F01F030120D1
:1032F00000FA03F3D2F81C026FEA030C20EA030081
:10330000C2F81C02C869C0B9D2F80C020CEA00006D
:10331000C2F80C028C884869D1F80CE044EA0E44EB
:10332000483042F830400C884869D1F808E044EA57
:103330000E44483002EBC0004460C86901281AD02E
:10334000886988BBD2F804020CEA0000C2F80402C3
:10335000086978BBD2F814020CEA0000C2F8140223
:10336000096A01292CD0D2F8003223F00103C2F8F7
:103370000032002010BDD2F80C021843C2F80C0233
:103380008C884869D1F800E044EA0E44483042F89D
:1033900030408C894869D1F808E044EA0E4448304E
:1033A00002EBC0004460CBE7D2F804021843C2F835
:1033B0000402CDE7D2F814021843C2F81402CFE792
:1033C000D2F81C120B43C2F81C32CCE770B504468D
:1033D00090F82050EDB2012D06D0436A43F400234B
:1033E00043620125284670BD022380F82030026820
:1033F000136823F001031360FFF758FB06462368A8
:103400005B6813F0010F0CD0FFF750FB831B0A2BF6
:10341000F5D9636A43F400336362052384F82030EE
:10342000E0E700256562DDE730B590F820C004686C
:10343000A4680CF1FF3C5FFA8CFCBCF1010F62D870
:1034400014F0E05F59D0C4F3016C012404FA0CF4C9
:103450001C608B68002B3DD10D68CB68046843EA83
:1034600045550CF118031B01E55003680C690CF17C
:10347000180E03EB0E135C600B7D012B35D0D17958
:1034800093791B0443EA0163517943EA01231479D8
:103490000168234301EB0C11C1F88C31D17893788A
:1034A0001B0443EA0163517843EA0123117802685F
:1034B0000B4302EB0C12C2F8883102680CF1180CB5
:1034C0004FEA0C1C52F80C3043F0010342F80C3068
:1034D00000201DE04C6843EAC403CC6823430CF190
:1034E0001804240105682B51BFE7036803EB0E1392
:1034F000596841F480715960C1E7436A43F400138D
:103500004362012004E0436A43F4802343620120C4
:1035100030BD90F820C00CF1FF3C5FFA8CFCBCF190
:10352000010F00F2A58030B451B90468E46814F0CA
:10353000030F10D1436A43F40013436201207EE07D
:103540000468246914F0030F05D1436A43F400139F
:103550004362012073E0056801F11B0424012C592A
:1035600004F004049460002C6BD1056801F11B0485
:1035700024012C59640D1460046801F11B0C4FEAFE
:103580000C1C54F80C4004F00204D4600468A444F9
:10359000DCF8045015F0080F5BD0082414610468AF
:1035A00001F11B0C04EB0C146468C4F30724946150
:1035B000046804EB0C146468240C5461026802EB88
:1035C0000112D2F8B8211A70026802EB0112D2F887
:1035D000B821C2F307225A70026802EB0112D2F836
:1035E000B821C2F307429A70026802EB0112D2F8C6
:1035F000B821120EDA70026802EB0112D2F8BC2177
:103600001A71026802EB0112D2F8BC21C2F3072240
:103610005A71026802EB0112D2F8BC21C2F30742D0
:103620009A71026802EB0112D2F8BC21120EDA7113
:10363000C1B90268D36843F02003D360002030BCD6
:103640007047056801F11B0424012C59E4085460FB
:1036500092E701F11B0504EB0514646804F00F0404
:1036600014619CE70268136943F020031361E5E7E6
:10367000436A43F4802343620120704790F820306E
:10368000013BDBB2012B01D90020704721B903684F
:10369000D86800F0030070470368186900F0030061
:1036A00070470000002808DB0901C9B200F1604042
:1036B00000F5614080F80013704700F00F00090129
:1036C000C9B2014B1954704714ED00E000B500F089
:1036D0000700C0F1070CBCF1040F28BF4FF0040C29
:1036E000031D062B0FD9C31E4FF0FF3E0EFA0CF040
:1036F00021EA000199400EFA03FE22EA0E0241EA95
:1037000002005DF804FB0023EEE70000074AD368DF
:1037100023F4E0631B041B0C000200F4E06003438D
:1037200043F0BF6343F40033D360704700ED00E023
:1037300010B50446054BD868C0F30220FFF7C6FF5A
:1037400001462046FFF7AEFF10BD00BF00ED00E0D0
:10375000002807DB00F01F02400901239340024AC2
:1037600042F82030704700BF00E100E070B582B041
:103770000024A446ACE0854DAB4210D007D9844D5F
:10378000AB420CD005F58035AB4208D013E0A5F56F
:103790008015AB4203D005F57025AB4207D18B688D
:1037A000002B5FD0012B58D04261082403E0A5F51F
:1037B0008015AB42F3D0BEF1FF0F55D806464FEA55
:1037C0008C0233680F25954023EA050304FA02F2C0
:1037D000134333604B6813F0805F77D06D4B9A6969
:1037E00042F001029A619B6903F001030193019B7E
:1037F0004FEA9C02951C684B53F825600CF00305BA
:10380000AD000F23AB4026EA0306644B984232D04A
:1038100003F58063984200F0978003F58063984237
:1038200000F0948003F58063984200F0918003F5E6
:103830008063984200F08E8003F58063984218D030
:10384000062319E0CC68B6E7CC680434B3E7CC684B
:103850000834B0E7CC680C34ADE702610824AAE76D
:103860000024A8E70424A6E7061DACF10802920094
:10387000A7E7052300E00023AB4033430232464D67
:1038800045F822304B6813F4801F65D0444A936892
:1038900043EA0E0393604B6813F4001F62D0404A62
:1038A000D36843EA0E03D3604B6813F4003F5FD044
:1038B0003B4A536843EA0E0353604B6813F4803F5E
:1038C0005CD0374A136843EA0E0313600CF1010C15
:1038D0000B6833FA0CF257D0012202FA0CF203EA19
:1038E000020E32EA0303F1D14B68122B3FF643AFCD
:1038F000122B3FF660AF01A555F823F09F37000863
:10390000453800084F38000861380008B73700080C
:10391000B7370008B7370008B7370008B7370008CF
:10392000B7370008B7370008B7370008B7370008BF
:10393000B7370008B7370008B7370008B7370008AF
:103940004938000855380008012395E7022393E71A
:10395000032391E704238FE7114A936823EA0E03B8
:10396000936098E70E4AD36823EA0E03D3609BE77F
:103970000B4A536823EA0E0353609EE7084A136814
:1039800023EA0E031360A1E702B070BD000022100D
:10399000000031100010024000000140000801400A
:1039A000000401408368194201D0012070470020C3
:1039B00070470AB1016170470904016170470368EB
:1039C0005A6912F4806F01D1002070476FF4806251
:1039D0005A6100230363202280F83D2080F83E30A6
:1039E000026C42F00402026480F83C30012070470F
:1039F0002DE9F04106460C46174698463BE0FFF796
:103A000055F8069BC01A404502D8B8F1000F32D1D4
:103A1000012D18D033689B6924EA03039BB2B3FAE3
:103A200083F35B099F4226D100233363202286F86B
:103A30003D2086F83E30326C42F02002326486F837
:103A40003C30012027E033685B6924EA03039BB222
:103A5000B3FA83F35B09E5E733685B6924EA030C97
:103A60001FFA8CFCBCFA8CFC4FEA5C1C674511D138
:103A7000B8F1FF3FC3D1C4F30745012DECD0336843
:103A80009B6924EA030C1FFA8CFCBCFA8CFC4FEAFD
:103A90005C1CEBE70020BDE8F0812DE9F84305460A
:103AA0000E469046994653E01A6842F400721A6036
:103AB0002B686FF480625A6100232B63202285F803
:103AC0003D2085F83E302A6C42F004022A6485F8D5
:103AD0003C3001204AE0FEF7E9FFA0EB0900404539
:103AE00002D8B8F1000F33D1012F17D02B689B6992
:103AF00026EA03039BB2003B18BF012343B3002314
:103B00002B63202285F83D2085F83E302A6C42F058
:103B100020022A6485F83C30012027E02B685B698D
:103B200026EA03039BB2003B18BF0123E6E72B689C
:103B30009C6926EA0404A4B2003C18BF0124A4B185
:103B40002B685A6912F4806FAED1B8F1FF3FC2D131
:103B5000C6F30747012FEAD12B685C6926EA040403
:103B6000A4B2003C18BF0124E9E70020BDE8F883B7
:103B700070B504460D46164623685B6913F0800F46
:103B800021D12046FFF71BFFF8B9B5F1FF3FF3D075
:103B9000FEF78CFF801BA84201D8002DECD12368D2
:103BA0005B6913F0800FE7D100232363202284F8A0
:103BB0003D2084F83E30226C42F02002226484F8DA
:103BC0003C30012000E0002070BD0120FCE7000037
:103BD0002DE9F04385B004460D4691461F46DDF8B9
:103BE00030800D9E0368196841F480711960009659
:103BF000434600224FF00111FFF7FAFE60B9236837
:103C000005F0FE051D613346424626492046FFF772
:103C100044FF68B1012008E023681B6813F4807F2B
:103C200002D04FF400732364032005B0BDE8F08395
:103C30000023039323685A6903929B690393039BB0
:103C4000324641462046FFF793FF30B9012F0FD18E
:103C500023685FFA89F61E61E7E7236C042B01D025
:103C60000120E2E72268136843F400731360F7E76A
:103C700023684FEA19221A61324641462046FFF76F
:103C800077FF20B923685FFA89F61E61CDE7236CC0
:103C9000042B01D00120C8E72268136843F40073A5
:103CA0001360F7E70200010070B504460D461646A2
:103CB00023685B6913F0040F21D12046FFF77FFED4
:103CC000F8B9B5F1FF3FF3D0FEF7F0FE801BA84234
:103CD00001D8002DECD123685B6913F0040FE7D104
:103CE00000232363202284F83D2084F83E30226C98
:103CF00042F02002226484F83C30012000E00020E1
:103D000070BD0120FCE70000002800F0CC8070B5F9
:103D1000044690F83D30002B77D0242384F83D30C2
:103D20002268136823F0010313602268136843F4C8
:103D3000004313602268136823F40043136000F00B
:103D400077FC62685A4B9A4264D85A4B98428CBFAF
:103D500000230123002B40F0A8805749A1FB00312C
:103D60008B0C25686A6822F03F0242EA91426A6041
:103D700021680A6A22F03F0266684D4DAE424FD874
:103D8000013313430B622168CA6922F44F4222F0C7
:103D9000FF026568464B9D424CD8431E6D00B3FB45
:103DA000F5F3013340F6FC70034278D0C3F30B0304
:103DB0001A43CA6121680B6823F0C003E269206AD4
:103DC000024313430B6021688B6823F4034323F001
:103DD000FF032269E068024313438B602168CB68CC
:103DE00023F0FF036269A06902431343CB6022689A
:103DF000136843F00103136000202064202384F83B
:103E00003D30206384F83E0070BD80F83C30FEF702
:103E10004BF882E7294B98428CBF0023012399E796
:103E20004FF4967505FB03F3254DA5FB03539B0942
:103E30000133A6E7A668BEB9431E05EB450CB3FBEC
:103E4000FCF30133C3F30B03B3FA83F35B0943BB06
:103E5000C6B9431E05EB4505B3FBF5F30133C3F3C8
:103E60000B0343F40043A3E7431E05EB850C0CEB67
:103E70008C0CB3FBFCF30133C3F30B03B3FA83F3F2
:103E80005B09E4E7431E05EB850505EB8505B3FB00
:103E9000F5F30133C3F30B0343F4404388E70423F2
:103EA00086E7012384E7012070470120ACE700BFCB
:103EB000A08601007F841E0083DE1B43FF083D00B7
:103EC000D34D62102DE9F04383B004460F4690466F
:103ED00099460C9EFEF7EAFD054694F83D00C0B2F7
:103EE000202803D0022003B0BDE8F08300951923F9
:103EF00001224B492046FFF77BFD002840F08980D6
:103F000094F83C30012B00F08680012384F83C308B
:103F100023681A6812F0010F03D11A6842F00102F7
:103F20001A602268136823F400631360212384F865
:103F30003D30402384F83E30002323640A9B6362B3
:103F4000BDF82C306385638D2385364BE362019584
:103F500000964B46424639462046FFF739FE002878
:103F60005BD1238D002B35D02A4631462046FFF702
:103F7000FFFD20BB626A236812781A61626A531CD3
:103F80006362218D013989B22185638D9BB2013B2A
:103F90009BB263852368586910F0040FE1D00029B3
:103FA000DFD052781A61636A01336362238D013B6B
:103FB0002385638D9BB2013B9BB26385D1E7236C64
:103FC000042B01D001208EE72268136843F40073AC
:103FD0001360F7E72A4631462046FFF765FE50B1E9
:103FE000236C042B01D001207DE72268136843F481
:103FF00000731360F7E72268136843F400731360DB
:10400000202384F83D30002384F83E3084F83C308F
:1040100069E7022067E7022065E7012063E700BF48
:10402000020010000000FFFF82B0084B1B68084A26
:10403000A2FB03235B0A00FB03F3019300BF019B78
:104040005A1E0192002BF9D102B0704718000020CF
:10405000D34D6210002800F0F18170B582B00446A3
:10406000036813F0010F2CD0994B5B6803F00C032D
:10407000042B1DD0964B5B6803F00C03082B12D069
:104080006368B3F5803F41D0002B55D103F18043E5
:1040900003F504331A6822F480321A601A6822F495
:1040A00080221A6037E08A4B5B6813F4803FE7D0C8
:1040B000874B1B6813F4003F03D06368002B00F0AC
:1040C000BF81236813F0020F75D0814B5B6813F03A
:1040D0000C0F5FD07E4B5B6803F00C03082B54D0B1
:1040E0002369002B00F08A807A4B01221A60FEF7C8
:1040F000DDFC0546764B1B6813F0020F75D1FEF709
:10410000D5FC401B0228F5D903209EE1704A1368B4
:1041100043F480331360636843B3FEF7C7FC05467E
:104120006B4B1B6813F4003FCBD1FEF7BFFC401B69
:104130006428F5D9032088E1B3F5A02F09D0644B9A
:104140001A6822F480321A601A6822F480221A60F7
:10415000E1E703F18043A3F53C331A6842F480227F
:104160001A601A6842F480321A60D4E7FEF79EFCA7
:104170000546574B1B6813F4003FA2D0FEF796FC90
:10418000401B6428F5D903205FE1514B5B6813F4B1
:10419000803FA5D14E4B1B6813F0020F03D023695B
:1041A000012B40F04F814A4A136823F0F8036169FC
:1041B00043EAC1031360236813F0080F33D0A369E7
:1041C000002B5CD0434B0122C3F88024FEF76EFC29
:1041D00005463F4B5B6A13F0020F21D1FEF766FCE8
:1041E000401B0228F5D903202FE1394A136823F038
:1041F000F803616943EAC1031360DCE7354B002231
:104200001A60FEF753FC0546314B1B6813F0020F92
:10421000D1D0FEF74BFC401B0228F5D9032014E156
:104220000120FFF701FF236813F0040F00F09680D0
:10423000274BDB6913F0805F34D1254BDA6942F0FC
:104240008052DA61DB6903F080530193019B012501
:10425000214B1B6813F4807F26D0E368012B3DD0EF
:10426000002B53D103F1804303F504331A6A22F083
:1042700001021A621A6A22F004021A6233E0154B34
:104280000022C3F88024FEF711FC0546104B5B6A40
:1042900013F0020FC7D0FEF709FC401B0228F5D926
:1042A0000320D2E00025D3E70B4A136843F4807360
:1042B0001360FEF7FBFB0646074B1B6813F4807F79
:1042C000CBD1FEF7F3FB801B6428F5D90320BCE0BB
:1042D0000010024000004242007000405F4A136A32
:1042E00043F001031362E36833B3FEF7DFFB0646D6
:1042F0005A4B1B6A13F0020F2FD1FEF7D7FB801B1E
:1043000041F288339842F3D903209EE0052B09D06F
:10431000524B1A6A22F001021A621A6A22F004024F
:104320001A62E0E74D4B1A6A42F004021A621A6AF6
:1043300042F001021A62D6E7FEF7B8FB0646474B89
:104340001B6A13F0020F08D0FEF7B0FB801B41F28E
:1043500088339842F3D9032077E0E5B9E369002B6D
:1043600072D03E4A526802F00C02082A56D0022B44
:1043700017D03B4B00221A66FEF798FB0446374BDA
:104380001B6813F0007F47D0FEF790FB001B02284C
:10439000F5D9032059E0314AD36923F08053D36122
:1043A000DCE72F4B00221A66FEF780FB05462B4BFD
:1043B0001B6813F0007F06D0FEF778FB401B022835
:1043C000F5D9032041E0236AB3F5803F1AD0234991
:1043D0004B6823F47413226A606A024313434B60F0
:1043E0001F4B01221A66FEF761FB04461B4B1B683C
:1043F00013F0007F0ED1FEF759FB001B0228F5D900
:10440000032022E0154A536823F40033A1680B43CC
:104410005360DCE7002018E0002016E0012B16D0E6
:104420000E4B5B6803F48031226A914211D103F490
:104430007013626A93420ED1002006E0012070479B
:10444000012002E0012000E0002002B070BD012048
:10445000FBE70120F9E70120F7E700BF0010024069
:10446000000042420F4B5B6803F00C02082A01D0A7
:104470000D487047C3F383420C49885C13F4803FB6
:104480000BD0084B5B68C3F34043094AD35C064A30
:1044900002FB00F0B0FBF3F07047064B03FB00F0AB
:1044A000704700BF0010024000127A0064CE00087E
:1044B00060CE000800093D00002800F0A08070B523
:1044C0000D460446524B1B6803F007038B420BD288
:1044D0004F4A136823F007030B431360136803F07C
:1044E00007038B4240F08D80236813F0020F17D032
:1044F00013F0040F04D0474A536843F4E063536059
:10450000236813F0080F04D0424A536843F4605301
:104510005360404A536823F0F003A1680B43536093
:10452000236813F0010F31D06368012B20D0022BD8
:1045300025D0384A126812F0020F64D035494A6813
:1045400022F0030213434B60FEF7B0FA0646314BEC
:104550005B6803F00C036268B3EB820F16D0FEF7C2
:10456000A5FA801B41F288339842F0D9032045E038
:10457000284A126812F4003FE0D101203EE0254AAB
:10458000126812F0007FD9D1012037E0204B1B6860
:1045900003F00703AB420AD91D4A136823F007034F
:1045A0002B431360136803F00703AB422DD123683C
:1045B00013F0040F06D0174A536823F4E063E16850
:1045C0000B435360236813F0080F07D0114A536858
:1045D00023F46053216943EAC1035360FFF742FFAC
:1045E0000C4B5B68C3F303130B4AD35CD8400B4BF3
:1045F00018600B4B1868FDF787FD002070BD012087
:1046000070470120FAE70120F8E70120F6E700BF34
:10461000002002400010024050CE00081800002088
:1046200020000020014B1868704700BF18000020D0
:1046300008B5FFF7F7FF044B5B68C3F30223034A97
:10464000D35CD84008BD00BF0010024048CE00082F
:1046500008B5FFF7E7FF044B5B68C3F3C223034AC7
:10466000D35CD84008BD00BF0010024048CE00080F
:104670000F2303600B4B5A6802F0030242605A6832
:1046800002F0F00282605A6802F4E062C2605B6885
:10469000DB0803F4E0630361034B1B6803F00703CB
:1046A0000B607047001002400020024070B582B0DD
:1046B0000446036813F0010F36D03F4BDB6913F05B
:1046C000805F49D13C4BDA6942F08052DA61DB69A4
:1046D00003F080530193019B0125384B1B6813F4B1
:1046E000807F3BD0344B1B6A13F4407313D0626855
:1046F00002F440729A420ED02F4A136A23F440709B
:104700002F490126C1F840640026C1F840641062B8
:1047100013F0010F36D1284A136A23F440736168FD
:104720000B431362002D3ED1236813F0020F06D015
:10473000214A536823F44043A1680B435360236824
:1047400013F0100F34D01C4A536823F480036169BE
:104750000B43536000202CE00025BEE7174A136886
:1047600043F480731360FEF7A1F90646134B1B68F0
:1047700013F4807FB6D1FEF799F9801B6428F5D930
:10478000032016E0FEF792F906460B4B1B6A13F066
:10479000020FC0D1FEF78AF9801B41F2883398429C
:1047A000F3D9032005E0D36923F08053D361BBE73D
:1047B000002002B070BD00BF001002400070004039
:1047C0000000424208B501380F2863D8DFE800F046
:1047D0003557622F626262326262626262626208AE
:1047E0002F4B5A68186810F0807054D0C2F383437E
:1047F0002C49C85C12F4803F15D0294B5B68C3F389
:104800004043294AD25C294BB3FBF2F303FB00F08F
:10481000234B5B6813F4800F3DD14000244BA3FB76
:104820000030400837E0234B03FB00F0F0E7FFF7D0
:1048300019FE30E0FFF716FE2DE0194B1B6A40F21F
:1048400002321A40B2F5817F26D003F44073B3F5EB
:10485000007F04D0B3F5407F09D000201BE0104A50
:10486000526A12F0020FF5D049F6404013E00C4BAB
:10487000186810F400300ED04FF224400BE0FFF720
:10488000E7FE074B5B68C3F3813301335B00B0FB8A
:10489000F3F000E0002008BD4FF40040FBE700BF4C
:1048A0000010024078CE000874CE000800127A0092
:1048B000ABAAAAAA00093D002DE9F04782B005463F
:1048C000884617461E46FEF7F1F80A9B1B1A03EBB3
:1048D0000609FEF7EBF88246284B1B68C3F3CB337F
:1048E00009FB03F301932B689C6838EA04040CBFAE
:1048F00001230023BB423DD0B6F1FF3FF3D0FEF7CA
:10490000D5F8A0EB0A00484507D2019A02B14A4601
:10491000019B013B01939146E5E72A68536823F028
:10492000E00353606B68B3F5827F0BD0AB6AB3F5DD
:10493000005F14D0012385F85130002385F85030F2
:10494000032018E0AB68B3F5004F02D0B3F5806FD9
:10495000ECD12A68136823F040031360E6E72A6865
:10496000136823F4005313602A68136843F4005358
:104970001360DFE7002002B0BDE8F08718000020D8
:1049800010B582B004460B46009200228021FFF74A
:1049900093FF08B902B010BD636D43F02003636557
:1049A0000320F7E710B582B004460B464168B1F525
:1049B000827F10D06168B1F5827F03D1A168B1F523
:1049C000806F15D00092002280212046FFF774FFEF
:1049D000E0B902B010BD8168B1F5004F02D0B1F569
:1049E000806FE7D12068016821F040010160E1E7B4
:1049F0000092002201212046FFF75EFF0028E8D048
:104A0000636D43F0200363650320E2E7636D43F0C9
:104A1000200363650320DCE7002856D010B5044668
:104A2000436A33B94368B3F5827F05D00023C3617D
:104A300002E00023036143610023A36294F8513034
:104A4000002B3CD0022384F851302268136823F0F5
:104A500040031360636803F48273A26802F40442A3
:104A60001343E26802F400621343226902F0020277
:104A70001343626902F001021343A26902F4007257
:104A80001343E26902F038021343226A02F0800203
:104A90001343A26A02F40052216813430B60638B34
:104AA000226803F0040353602268D36923F400638F
:104AB000D36100206065012384F8513010BD84F873
:104AC00050302046FDF7BAFABCE7012070472DE9C7
:104AD000F04383B01D4690F85030012B00F0D18098
:104AE000044688469146012380F85030FDF7DEFFEA
:104AF000074694F85160F6B2012E40F0BA80B8F142
:104B0000000F00F0B780B9F1000F00F0B38003236D
:104B100084F8513000236365C4F83080A4F83490E1
:104B2000A4F83690A363A387E38763642364A36830
:104B3000B3F5004F1ED023681A6812F0400F03D15E
:104B40001A6842F040021A60E368B3F5006F1CD0A7
:104B5000636813B1B9F1010F55D1226B2368127844
:104B60001A73236B01332363E38E9BB2013B9BB229
:104B7000E38648E02268136823F04003136022684C
:104B8000136843F480431360D5E7636813B1B9F148
:104B9000010F15D1226B23681288DA60236B023370
:104BA0002363E38E9BB2013B9BB2E38608E0FDF7F3
:104BB0007DFFC01BA84202D3B5F1FF3F15D1A5B1BF
:104BC000E38E9BB2002B3CD023689A6812F0020F50
:104BD000EDD0226B1288DA60236B02332363E38EFD
:104BE0009BB2013B9BB2E386EAE7012384F8513094
:104BF00003263FE0FDF75AFFC01BA84202D3B5F1E0
:104C0000FF3F19D1C5B1E38E9BB2D3B123689A6837
:104C100012F0020FEED0226B12781A73236B01335D
:104C20002363B4F836C01FFA8CFC0CF1FF3C1FFA6A
:104C30008CFCA4F836C0E6E7012384F85130032643
:104C400018E03A4629462046FFF79AFE08B120238D
:104C50006365A36833B901932368DA6801929B689E
:104C60000193019B636D2BB9012384F85130002619
:104C700000E00226002384F85030304603B0BDE83F
:104C8000F0830226F9E72DE9F04383B01F460A9D21
:104C900090F85030012B00F016810446884691466A
:104CA000012380F85030FDF701FF064694F851309B
:104CB000DBB26268012B0AD0B2F5827F40F0F0804F
:104CC000A268002A40F0F380042B40F0F280B8F193
:104CD000000F00F0F080B9F1000F00F0EE80002F1F
:104CE00000F0ED8094F85130DBB2042B02D00523A4
:104CF00084F8513000236365C4F83890E787A787AC
:104D0000C4F83080E786A7862364636423681A6842
:104D100012F0400F03D11A6842F040021A60E368B3
:104D2000B3F5006F11D063680BB1012F0BD1226B6B
:104D3000236812781A73236B01332363E38E9BB2CB
:104D4000013B9BB2E38601276EE063680BB1012F44
:104D50000BD1226B23681288DA60236B0233236342
:104D6000E38E9BB2013B9BB2E38601271BE02368E5
:104D70009A6812F0010F0ED0E28F92B25AB1DA683F
:104D8000A36B1A80A36B0233A363E38F9BB2013B37
:104D90009BB2E3870127FDF789FE801BA84202D35F
:104DA000B5F1FF3F1ED1E38E9BB21BB9E38F9BB2DF
:104DB000002B5CD023689A6812F0020FD7D0E28EE5
:104DC00092B2002AD3D0002FD1D0226B1288DA60A1
:104DD000236B02332363E38E9BB2013B9BB2E386DA
:104DE0000027C4E7012384F85130032059E02368E9
:104DF0009A6812F0010F0ED0E28F92B25AB1DA68BF
:104E0000A36B1A70A36B0133A363E38F9BB2013BC7
:104E10009BB2E3870127FDF749FE831BAB4202D318
:104E2000B5F1FF3F1ED1EDB1E38E9BB213B9E38F15
:104E30009BB2E3B123689A6812F0020FD7D0E28EDA
:104E400092B2002AD3D0002FD1D0226B12781A73DD
:104E5000236B01332363E38E9BB2013B9BB2E3865A
:104E60000027C4E7012384F85130032019E03246BB
:104E700029462046FFF784FD70B9A36833B9019332
:104E80002368DA6801929B680193019B636DC3B943
:104E9000012384F8513004E020236365012000E001
:104EA0000220002384F8503003B0BDE8F0830220D4
:104EB000F7E70220F5E70120F3E70120F1E7012001
:104EC000EFE70120EDE70220EEE72DE9F04383B0A4
:104ED000044690F85160F6B2012E40F0AB8088464F
:104EE00091461D464368B3F5827F32D094F8503026
:104EF000012B00F0A780012384F85030FDF7D6FD88
:104F00000746B8F1000F00F09680B9F1000F00F0ED
:104F10009280042384F8513000236365C4F83880FC
:104F2000A4F83C90A4F83E902363A386E386236410
:104F30006364A368B3F5004F18D023681A6812F0B1
:104F4000400F03D11A6842F040021A60E3680BB3C5
:104F500043E08368002BC9D1042380F851300095C9
:104F600013460A46FFF78FFE064667E0226813687D
:104F700023F0400313602268136823F48043136016
:104F8000DBE7FDF793FDC01BA84202D3B5F1FF3F5D
:104F900015D1A5B1E38F9BB2002B3CD023689A6852
:104FA00012F0010FEDD0A26B1B7B1370A36B0133CA
:104FB000A363E38F9BB2013B9BB2E387EAE7012344
:104FC00084F85130032636E0FDF770FDC01BA8427F
:104FD00002D3B5F1FF3F19D1C5B1E38F9BB2D3B175
:104FE00023689A6812F0010FEED0DA68A36B1A807A
:104FF000A36B0233A363B4F83EC01FFA8CFC0CF120
:10500000FF3C1FFA8CFCA4F83EC0E6E7012384F8BD
:10501000513003260FE03A4629462046FFF7C2FCEE
:1050200008B120236365636D2BB9012384F85130E7
:10503000002600E00226002384F85030304603B0FA
:10504000BDE8F0830226F9E730B4036A026A22F071
:10505000010202624268846924F0730C0C6844EA1D
:105060000C0423F0020C8B6843EA0C03114DA84298
:1050700003D005F50065A84205D123F00803CD68EB
:105080002B4323F004030B4DA84203D005F5006524
:10509000A84207D122F440724D6945EA020C8A69A0
:1050A00042EA0C02426084614A684263036230BC97
:1050B000704700BF002C014030B4036A026A22F43A
:1050C000807202624268C46924F0730C0C6844EA7E
:1050D0000C0523F400738C6843EA0423114CA042AE
:1050E00003D004F50064A04206D123F40063CC6829
:1050F00043EA042323F480630A4CA04203D004F55E
:105100000064A04207D122F440524C6942EA0412E2
:105110008C6942EA04124260C5614A68C263036254
:1051200030BC7047002C014030B4036A026A22F49C
:10513000805202624468C26922F4E6420D6842EA83
:10514000052223F400538D6843EA0533094DA84234
:1051500003D005F50065A84204D124F480444D69CC
:1051600044EA85144460C2614A680264036230BC48
:10517000704700BF002C014010B4036A046A24F099
:1051800001040462846924F0F00C4CEA021223F05A
:105190000A030B438261036210BC704710B4036AB8
:1051A000046A24F010040462846924F4704C4CEA0C
:1051B000023223F0A00343EA01138261036210BCB0
:1051C0007047836823F070030B4343F00703836049
:1051D0007047000090F83D30DBB2012B2FD1022345
:1051E00080F83D300268D36843F00103D360036860
:1051F000154A934218D002F50062934214D0B3F1DD
:10520000804F11D0A2F5983293420DD002F5806202
:10521000934209D002F58062934205D01A6842F0A9
:1052200001021A60002070479A6802F00702062AFD
:1052300007D01A6842F001021A600020704701206E
:1052400070470020704700BF002C01407047704736
:1052500070477047704710B5044603681A6912F02A
:10526000020F11D0DA6812F0020F0DD06FF00202B7
:105270001A610123037703689B6913F0030F70D051
:10528000FFF7E6FF0023237723681A6912F0040F63
:1052900012D0DA6812F0040F0ED06FF004021A6117
:1052A0000223237723689B6913F4407F5FD0204655
:1052B000FFF7CEFF0023237723681A6912F0080F47
:1052C00012D0DA6812F0080F0ED06FF008021A61DF
:1052D000042323772368DB6913F0030F4ED02046A5
:1052E000FFF7B6FF0023237723681A6912F0100F27
:1052F00012D0DA6812F0100F0ED06FF010021A619F
:10530000082323772368DB6913F4407F3DD02046D0
:10531000FFF79EFF0023237723681A6912F0010F1D
:1053200003D0DA6812F0010F36D123681A6912F03F
:10533000800F03D0DA6812F0800F34D123681A6925
:1053400012F0400F03D0DA6812F0400F32D1236818
:105350001A6912F0200F03D0DA6812F0200F30D152
:1053600010BDFFF774FF2046FFF773FF8AE7204662
:10537000FFF76DFF2046FFF76CFF9BE72046FFF726
:1053800066FF2046FFF765FFACE72046FFF75FFFAB
:105390002046FFF75EFFBDE76FF001021A6120466D
:1053A000FCF7B4FDC1E76FF080021A61204600F0FF
:1053B0001BFCC3E76FF040021A612046FFF74AFF6B
:1053C000C5E76FF020021A61204600F00CFCC7E729
:1053D0000368244A904212D002F5006290420ED037
:1053E000B0F1804F0BD0A2F59832904207D002F571
:1053F0008062904203D002F58062904203D123F094
:1054000070034A681343174A904212D002F50062B3
:1054100090420ED0B0F1804F0BD0A2F5983290425E
:1054200007D002F58062904203D002F5806290427C
:1054300003D123F44073CA68134323F080034A69FD
:10544000134303608B68C3620B688362054B984209
:1054500003D003F50063984201D10B690363012374
:1054600043617047002C014040B310B5044690F8EA
:105470003D30F3B1022384F83D30214651F8040B4E
:10548000FFF7A6FF012384F8463084F83E3084F805
:105490003F3084F8403084F8413084F8423084F85A
:1054A000433084F8443084F8453084F83D3000209F
:1054B00010BD80F83C30FCF7F3FFDBE701207047BC
:1054C00040B310B5044690F83D30F3B1022384F8A0
:1054D0003D30214651F8040BFFF77AFF012384F891
:1054E000463084F83E3084F83F3084F8403084F809
:1054F000413084F8423084F8433084F8443084F8F2
:10550000453084F83D30002010BD80F83C30FFF776
:105510009DFEDBE701207047002856D070B50D4690
:10552000044690F83D30002B4AD0022384F83D30E9
:105530002268936823F4804323F007039360214695
:1055400051F8040BFFF744FF21688B688A690E6AE3
:105550002868184322F4407222F00302AB68D5F8A1
:1055600018C043EA0C23134323F47C4323F0FC03C9
:10557000EA68D5F81CC042EA0C221A432B6A1B03C6
:10558000D5F810C043EA0C13134326F022066A68CC
:105590006D6942EA05123243886021688B61236895
:1055A0001A62012384F8463084F83E3084F83F3094
:1055B00084F8423084F8433084F83D30002070BDD8
:1055C00080F83C30FCF7ACFFAFE7012070470000EB
:1055D00030B4036A026A22F01002026244688269EF
:1055E00022F4E6420D6842EA052223F020038D688A
:1055F00043EA0513114DA84203D005F50065A84202
:1056000006D123F08003CD6843EA051323F040035D
:105610000A4DA84203D005F50065A84207D124F43D
:1056200040644D6944EA85048D6944EA8504446018
:1056300082614A688263036230BC7047002C01407B
:1056400038B590F83C30012B66D004460D46012356
:1056500080F83C300C2A5AD8DFE802F00759595933
:105660001B5959593059595944000068FFF7ECFC4F
:105670002268936943F0080393612268936923F0D9
:10568000040393612268936929690B4393610020A5
:105690003EE00068FFF79CFF2268936943F40063D3
:1056A00093612268936923F480639361226893690C
:1056B000296943EA01239361002029E00068FFF78C
:1056C000FBFC2268D36943F00803D3612268D369E5
:1056D00023F00403D3612268D36929690B43D361A2
:1056E000002015E00068FFF71FFD2268D36943F42E
:1056F0000063D3612268D36923F48063D361226895
:10570000D369296943EA0123D361002000E0012025
:10571000002384F83C3038BD0220FCE710B48468D4
:1057200024F47F4C42EA03220A4342EA0C028260DC
:1057300010BC704790F83C30012B78D010B504466F
:10574000012380F83C30022380F83D3002689368E2
:1057500023F47F4323F0770393600B68602B4CD0D6
:1057600029D8402B54D00CD9502B22D1CA68496873
:105770000068FFF701FD50212068FFF722FD00209F
:1057800005E0202B0DD009D9302B0AD001200123B0
:1057900084F83D30002384F83C3010BD0BB1102B51
:1057A00005D119462068FFF70CFD0020EFE7012026
:1057B000EDE70120EBE7B3F5805F34D0B3F5005F90
:1057C0000CD1CB684A6889680068FFF7A7FF226898
:1057D000936843F4804393600020D8E7702B24D172
:1057E000CB684A6889680068FFF798FF2268936869
:1057F00043F0770393600020C9E7CA6849680068EE
:10580000FFF7CCFC60212068FFF7DBFC0020BEE73F
:10581000CA6849680068FFF7AFFC40212068FFF7BD
:10582000D0FC0020B3E70020B1E70120AFE7022061
:10583000704701F01F014FF0010C0CFA01FC036AE4
:1058400023EA0C030362036A8A401343036270472E
:1058500010B50446084600293AD194F83E30DBB230
:10586000013B18BF0123002B66D1002849D1022338
:1058700084F83E30012201462068FFF7DAFF2368F2
:105880002F4A934203D002F50062934203D15A6C2F
:1058900042F400425A642368294A934241D002F5F7
:1058A000006293423DD0B3F1804F3AD0A2F59832D6
:1058B000934236D002F58062934232D002F5806284
:1058C00093422ED01A6842F001021A60002032E0A2
:1058D000042908D008290DD094F84130DBB2013BEF
:1058E00018BF0123BFE794F83F30DBB2013B18BF7C
:1058F0000123B8E794F84030DBB2013B18BF012325
:10590000B1E7042805D0082807D0022384F84130E5
:10591000B0E7022384F83F30ACE7022384F840303C
:10592000A8E79A6802F00702062A07D01A6842F030
:1059300001021A60002010BD0120FCE70020FAE7F8
:10594000002C014038B5044690F83E00C0B294F8EF
:105950003F3094F84220D2B294F843C00D46B1B91A
:10596000012849D1012A48D1022384F83E3084F825
:1059700042307DB3042D39D0012200212068FFF789
:1059800058FF012204212068FFF753FF27E0DBB214
:105990005FFA8CFC042912D0012833D1012B2CD1C1
:1059A000012A31D1BCF1010F30D1022384F83E30FD
:1059B00084F83F3084F8423084F84330D9E7012B33
:1059C0001CD1BCF1010F1BD1022384F83F3084F8B5
:1059D0004330CEE7012200212068FFF72AFF22682A
:1059E000136843F001031360002006E00122042144
:1059F0002068FFF71EFFF2E7012038BD0120FCE719
:105A00001846FAE70120F8E71846F6E71046F4E7EB
:105A100001F01F014FF0040C0CFA01FC036A23EAA9
:105A20000C030362036A8A40134303627047000059
:105A300010B504460846002933D194F84230DBB251
:105A4000013B18BF0123002B5FD1002842D1022364
:105A500084F84230042201462068FFF7D9FF22680B
:105A6000536C43F40043536423682A4A934241D061
:105A700002F5006293423DD0B3F1804F3AD0A2F5D7
:105A80009832934236D002F58062934232D002F5CA
:105A9000806293422ED01A6842F001021A60002000
:105AA00032E0042908D008290DD094F84530DBB243
:105AB000013B18BF0123C6E794F84330DBB2013B3A
:105AC00018BF0123BFE794F84430DBB2013B18BF95
:105AD0000123B8E7042805D0082807D0022384F85A
